{
  "_format": "hh-sol-artifact-1",
  "contractName": "Wishlist",
  "sourceName": "contracts/Wishlist.sol",
  "abi": [
    {
      "inputs": [],
      "stateMutability": "nonpayable",
      "type": "constructor"
    },
    {
      "anonymous": false,
      "inputs": [
        {
          "indexed": false,
          "internalType": "address",
          "name": "user",
          "type": "address"
        },
        {
          "indexed": false,
          "internalType": "string",
          "name": "name",
          "type": "string"
        }
      ],
      "name": "UserRegistered",
      "type": "event"
    },
    {
      "anonymous": false,
      "inputs": [
        {
          "indexed": false,
          "internalType": "uint256",
          "name": "id",
          "type": "uint256"
        },
        {
          "indexed": false,
          "internalType": "string",
          "name": "title",
          "type": "string"
        },
        {
          "indexed": false,
          "internalType": "address",
          "name": "wisher",
          "type": "address"
        },
        {
          "indexed": false,
          "internalType": "uint256",
          "name": "currentAmount",
          "type": "uint256"
        }
      ],
      "name": "WishClosed",
      "type": "event"
    },
    {
      "anonymous": false,
      "inputs": [
        {
          "indexed": false,
          "internalType": "uint256",
          "name": "id",
          "type": "uint256"
        },
        {
          "indexed": false,
          "internalType": "string",
          "name": "title",
          "type": "string"
        },
        {
          "indexed": false,
          "internalType": "string",
          "name": "description",
          "type": "string"
        },
        {
          "indexed": false,
          "internalType": "uint256",
          "name": "goalAmount",
          "type": "uint256"
        },
        {
          "indexed": false,
          "internalType": "address",
          "name": "wisher",
          "type": "address"
        }
      ],
      "name": "WishCreated",
      "type": "event"
    },
    {
      "anonymous": false,
      "inputs": [
        {
          "indexed": false,
          "internalType": "uint256",
          "name": "id",
          "type": "uint256"
        },
        {
          "indexed": false,
          "internalType": "string",
          "name": "title",
          "type": "string"
        },
        {
          "indexed": false,
          "internalType": "uint256",
          "name": "currentAmount",
          "type": "uint256"
        },
        {
          "indexed": false,
          "internalType": "address",
          "name": "wisher",
          "type": "address"
        },
        {
          "indexed": false,
          "internalType": "address",
          "name": "donater",
          "type": "address"
        },
        {
          "indexed": false,
          "internalType": "uint256",
          "name": "donationAmount",
          "type": "uint256"
        }
      ],
      "name": "WishFunded",
      "type": "event"
    },
    {
      "anonymous": false,
      "inputs": [
        {
          "indexed": false,
          "internalType": "uint256",
          "name": "id",
          "type": "uint256"
        },
        {
          "indexed": false,
          "internalType": "string",
          "name": "title",
          "type": "string"
        },
        {
          "indexed": false,
          "internalType": "address",
          "name": "wisher",
          "type": "address"
        },
        {
          "indexed": false,
          "internalType": "address",
          "name": "donater",
          "type": "address"
        },
        {
          "indexed": false,
          "internalType": "uint256",
          "name": "refundAmount",
          "type": "uint256"
        }
      ],
      "name": "WishRefunded",
      "type": "event"
    },
    {
      "anonymous": false,
      "inputs": [
        {
          "indexed": false,
          "internalType": "uint256",
          "name": "id",
          "type": "uint256"
        },
        {
          "indexed": false,
          "internalType": "string",
          "name": "title",
          "type": "string"
        },
        {
          "indexed": false,
          "internalType": "address",
          "name": "wisher",
          "type": "address"
        },
        {
          "indexed": false,
          "internalType": "uint256",
          "name": "currentAmount",
          "type": "uint256"
        }
      ],
      "name": "WishWithdrawn",
      "type": "event"
    },
    {
      "inputs": [
        {
          "internalType": "uint256",
          "name": "_wishId",
          "type": "uint256"
        }
      ],
      "name": "closeWish",
      "outputs": [],
      "stateMutability": "nonpayable",
      "type": "function"
    },
    {
      "inputs": [
        {
          "internalType": "string",
          "name": "_title",
          "type": "string"
        },
        {
          "internalType": "string",
          "name": "_description",
          "type": "string"
        },
        {
          "internalType": "uint256",
          "name": "_goalAmount",
          "type": "uint256"
        }
      ],
      "name": "createWish",
      "outputs": [],
      "stateMutability": "nonpayable",
      "type": "function"
    },
    {
      "inputs": [
        {
          "internalType": "uint256",
          "name": "_wishId",
          "type": "uint256"
        }
      ],
      "name": "fundWish",
      "outputs": [],
      "stateMutability": "payable",
      "type": "function"
    },
    {
      "inputs": [
        {
          "internalType": "uint256",
          "name": "_id",
          "type": "uint256"
        }
      ],
      "name": "getWish",
      "outputs": [
        {
          "internalType": "uint256",
          "name": "",
          "type": "uint256"
        },
        {
          "internalType": "string",
          "name": "",
          "type": "string"
        },
        {
          "internalType": "string",
          "name": "",
          "type": "string"
        },
        {
          "internalType": "uint256",
          "name": "",
          "type": "uint256"
        },
        {
          "internalType": "uint256",
          "name": "",
          "type": "uint256"
        },
        {
          "internalType": "address",
          "name": "",
          "type": "address"
        },
        {
          "internalType": "bool",
          "name": "",
          "type": "bool"
        }
      ],
      "stateMutability": "view",
      "type": "function"
    },
    {
      "inputs": [],
      "name": "getWishCount",
      "outputs": [
        {
          "internalType": "uint256",
          "name": "",
          "type": "uint256"
        }
      ],
      "stateMutability": "view",
      "type": "function"
    },
    {
      "inputs": [],
      "name": "getWishes",
      "outputs": [
        {
          "components": [
            {
              "internalType": "uint256",
              "name": "id",
              "type": "uint256"
            },
            {
              "internalType": "string",
              "name": "title",
              "type": "string"
            },
            {
              "internalType": "string",
              "name": "description",
              "type": "string"
            },
            {
              "internalType": "uint256",
              "name": "goalAmount",
              "type": "uint256"
            },
            {
              "internalType": "uint256",
              "name": "currentAmount",
              "type": "uint256"
            },
            {
              "internalType": "address",
              "name": "wisher",
              "type": "address"
            },
            {
              "internalType": "bool",
              "name": "isFundable",
              "type": "bool"
            }
          ],
          "internalType": "struct Wishlist.WishModel[]",
          "name": "",
          "type": "tuple[]"
        }
      ],
      "stateMutability": "view",
      "type": "function"
    },
    {
      "inputs": [],
      "name": "owner",
      "outputs": [
        {
          "internalType": "address",
          "name": "",
          "type": "address"
        }
      ],
      "stateMutability": "view",
      "type": "function"
    },
    {
      "inputs": [
        {
          "internalType": "uint256",
          "name": "_wishId",
          "type": "uint256"
        }
      ],
      "name": "refundWish",
      "outputs": [],
      "stateMutability": "nonpayable",
      "type": "function"
    },
    {
      "inputs": [
        {
          "internalType": "address",
          "name": "",
          "type": "address"
        }
      ],
      "name": "users",
      "outputs": [
        {
          "internalType": "string",
          "name": "",
          "type": "string"
        }
      ],
      "stateMutability": "view",
      "type": "function"
    },
    {
      "inputs": [
        {
          "internalType": "uint256",
          "name": "",
          "type": "uint256"
        }
      ],
      "name": "wishes",
      "outputs": [
        {
          "internalType": "uint256",
          "name": "id",
          "type": "uint256"
        },
        {
          "internalType": "string",
          "name": "title",
          "type": "string"
        },
        {
          "internalType": "string",
          "name": "description",
          "type": "string"
        },
        {
          "internalType": "uint256",
          "name": "goalAmount",
          "type": "uint256"
        },
        {
          "internalType": "uint256",
          "name": "currentAmount",
          "type": "uint256"
        },
        {
          "internalType": "address",
          "name": "wisher",
          "type": "address"
        },
        {
          "internalType": "bool",
          "name": "isFundable",
          "type": "bool"
        }
      ],
      "stateMutability": "view",
      "type": "function"
    },
    {
      "inputs": [
        {
          "internalType": "uint256",
          "name": "_wishId",
          "type": "uint256"
        }
      ],
      "name": "withdrawFunds",
      "outputs": [],
      "stateMutability": "nonpayable",
      "type": "function"
    }
  ],
  "bytecode": "0x60806040523480156200001157600080fd5b50336000806101000a81548173ffffffffffffffffffffffffffffffffffffffff021916908373ffffffffffffffffffffffffffffffffffffffff16021790555060016040518060e00160405280600081526020016040518060400160405280600d81526020017f4275792061206e6577206361720000000000000000000000000000000000000081525081526020016040518060400160405280601781526020017f492077616e7420746f206275792061206e657720636172000000000000000000815250815260200168056bc75e2d631000008152602001600081526020013373ffffffffffffffffffffffffffffffffffffffff1681526020016001151581525090806001815401808255809150506001900390600052602060002090600602016000909190919091506000820151816000015560208201518160010190816200015f919062000475565b50604082015181600201908162000177919062000475565b50606082015181600301556080820151816004015560a08201518160050160006101000a81548173ffffffffffffffffffffffffffffffffffffffff021916908373ffffffffffffffffffffffffffffffffffffffff16021790555060c08201518160050160146101000a81548160ff02191690831515021790555050506200055c565b600081519050919050565b7f4e487b7100000000000000000000000000000000000000000000000000000000600052604160045260246000fd5b7f4e487b7100000000000000000000000000000000000000000000000000000000600052602260045260246000fd5b600060028204905060018216806200027d57607f821691505b60208210810362000293576200029262000235565b5b50919050565b60008190508160005260206000209050919050565b60006020601f8301049050919050565b600082821b905092915050565b600060088302620002fd7fffffffffffffffffffffffffffffffffffffffffffffffffffffffffffffffff82620002be565b620003098683620002be565b95508019841693508086168417925050509392505050565b6000819050919050565b6000819050919050565b600062000356620003506200034a8462000321565b6200032b565b62000321565b9050919050565b6000819050919050565b620003728362000335565b6200038a62000381826200035d565b848454620002cb565b825550505050565b600090565b620003a162000392565b620003ae81848462000367565b505050565b5b81811015620003d657620003ca60008262000397565b600181019050620003b4565b5050565b601f8211156200042557620003ef8162000299565b620003fa84620002ae565b810160208510156200040a578190505b620004226200041985620002ae565b830182620003b3565b50505b505050565b600082821c905092915050565b60006200044a600019846008026200042a565b1980831691505092915050565b600062000465838362000437565b9150826002028217905092915050565b6200048082620001fb565b67ffffffffffffffff8111156200049c576200049b62000206565b5b620004a8825462000264565b620004b5828285620003da565b600060209050601f831160018114620004ed5760008415620004d8578287015190505b620004e4858262000457565b86555062000554565b601f198416620004fd8662000299565b60005b82811015620005275784890151825560018201915060208501945060208101905062000500565b8683101562000547578489015162000543601f89168262000437565b8355505b6001600288020188555050505b505050505050565b6123f2806200056c6000396000f3fe60806040526004361061009c5760003560e01c8063553875b211610064578063553875b21461018c5780638820e466146101a85780638da5cb5b146101eb578063a87430ba14610216578063b97718ae14610253578063e35e2cd81461027c5761009c565b80630153b82b146100a157806304ffb539146100cc578063155dd5ee146100f75780631953f22214610120578063202cbac214610149575b600080fd5b3480156100ad57600080fd5b506100b66102a5565b6040516100c3919061163d565b60405180910390f35b3480156100d857600080fd5b506100e16104b7565b6040516100ee919061166e565b60405180910390f35b34801561010357600080fd5b5061011e600480360381019061011991906116c9565b6104c4565b005b34801561012c57600080fd5b506101476004803603810190610142919061182b565b6106b5565b005b34801561015557600080fd5b50610170600480360381019061016b91906116c9565b61087c565b604051610183979695949392919061191e565b60405180910390f35b6101a660048036038101906101a191906116c9565b610aef565b005b3480156101b457600080fd5b506101cf60048036038101906101ca91906116c9565b610d66565b6040516101e2979695949392919061191e565b60405180910390f35b3480156101f757600080fd5b50610200610ef5565b60405161020d919061199b565b60405180910390f35b34801561022257600080fd5b5061023d600480360381019061023891906119e2565b610f19565b60405161024a9190611a0f565b60405180910390f35b34801561025f57600080fd5b5061027a600480360381019061027591906116c9565b610fb9565b005b34801561028857600080fd5b506102a3600480360381019061029e91906116c9565b61114b565b005b60606001805480602002602001604051908101604052809291908181526020016000905b828210156104ae57838290600052602060002090600602016040518060e00160405290816000820154815260200160018201805461030690611a60565b80601f016020809104026020016040519081016040528092919081815260200182805461033290611a60565b801561037f5780601f106103545761010080835404028352916020019161037f565b820191906000526020600020905b81548152906001019060200180831161036257829003601f168201915b5050505050815260200160028201805461039890611a60565b80601f01602080910402602001604051908101604052809291908181526020018280546103c490611a60565b80156104115780601f106103e657610100808354040283529160200191610411565b820191906000526020600020905b8154815290600101906020018083116103f457829003601f168201915b5050505050815260200160038201548152602001600482015481526020016005820160009054906101000a900473ffffffffffffffffffffffffffffffffffffffff1673ffffffffffffffffffffffffffffffffffffffff1673ffffffffffffffffffffffffffffffffffffffff1681526020016005820160149054906101000a900460ff161515151581525050815260200190600101906102c9565b50505050905090565b6000600180549050905090565b6000600182815481106104da576104d9611a91565b5b906000526020600020906006020190508060050160149054906101000a900460ff161561053c576040517f08c379a000000000000000000000000000000000000000000000000000000000815260040161053390611b0c565b60405180910390fd5b8060050160009054906101000a900473ffffffffffffffffffffffffffffffffffffffff1673ffffffffffffffffffffffffffffffffffffffff163373ffffffffffffffffffffffffffffffffffffffff16146105ce576040517f08c379a00000000000000000000000000000000000000000000000000000000081526004016105c590611b9e565b60405180910390fd5b600081600401549050600082600401819055508160050160009054906101000a900473ffffffffffffffffffffffffffffffffffffffff1673ffffffffffffffffffffffffffffffffffffffff166108fc829081150290604051600060405180830381858888f1935050505015801561064b573d6000803e3d6000fd5b507f8aedd9e32d952f4dcfb8653767759e20c7a0ae32d3204478d0ceae10fe71fc8483836001018460050160009054906101000a900473ffffffffffffffffffffffffffffffffffffffff16846040516106a89493929190611c57565b60405180910390a1505050565b600081116106f8576040517f08c379a00000000000000000000000000000000000000000000000000000000081526004016106ef90611d15565b60405180910390fd5b60016040518060e001604052806001805490508152602001858152602001848152602001838152602001600081526020013373ffffffffffffffffffffffffffffffffffffffff1681526020016001151581525090806001815401808255809150506001900390600052602060002090600602016000909190919091506000820151816000015560208201518160010190816107949190611ecc565b5060408201518160020190816107aa9190611ecc565b50606082015181600301556080820151816004015560a08201518160050160006101000a81548173ffffffffffffffffffffffffffffffffffffffff021916908373ffffffffffffffffffffffffffffffffffffffff16021790555060c08201518160050160146101000a81548160ff02191690831515021790555050507f229b523dc237749feb370617372f075a89a237e7b3badee63a20a1f393a01e436001808054905061085a9190611fcd565b8484843360405161086f959493929190612001565b60405180910390a1505050565b600060608060008060008060018054905088106108ce576040517f08c379a00000000000000000000000000000000000000000000000000000000081526004016108c5906120ae565b60405180910390fd5b6000600189815481106108e4576108e3611a91565b5b90600052602060002090600602016040518060e00160405290816000820154815260200160018201805461091790611a60565b80601f016020809104026020016040519081016040528092919081815260200182805461094390611a60565b80156109905780601f1061096557610100808354040283529160200191610990565b820191906000526020600020905b81548152906001019060200180831161097357829003601f168201915b505050505081526020016002820180546109a990611a60565b80601f01602080910402602001604051908101604052809291908181526020018280546109d590611a60565b8015610a225780601f106109f757610100808354040283529160200191610a22565b820191906000526020600020905b815481529060010190602001808311610a0557829003601f168201915b5050505050815260200160038201548152602001600482015481526020016005820160009054906101000a900473ffffffffffffffffffffffffffffffffffffffff1673ffffffffffffffffffffffffffffffffffffffff1673ffffffffffffffffffffffffffffffffffffffff1681526020016005820160149054906101000a900460ff1615151515815250509050806000015181602001518260400151836060015184608001518560a001518660c00151975097509750975097509750975050919395979092949650565b60003411610b32576040517f08c379a0000000000000000000000000000000000000000000000000000000008152600401610b299061211a565b60405180910390fd5b6001805490508110610b79576040517f08c379a0000000000000000000000000000000000000000000000000000000008152600401610b70906120ae565b60405180910390fd5b60018181548110610b8d57610b8c611a91565b5b906000526020600020906006020160050160149054906101000a900460ff16610beb576040517f08c379a0000000000000000000000000000000000000000000000000000000008152600401610be290612186565b60405180910390fd5b600060018281548110610c0157610c00611a91565b5b9060005260206000209060060201905034816004016000828254610c2591906121a6565b925050819055506003600083815260200190815260200160002060405180606001604052808481526020013373ffffffffffffffffffffffffffffffffffffffff1681526020013481525090806001815401808255809150506001900390600052602060002090600302016000909190919091506000820151816000015560208201518160010160006101000a81548173ffffffffffffffffffffffffffffffffffffffff021916908373ffffffffffffffffffffffffffffffffffffffff1602179055506040820151816002015550507fc37b50c58e9d90c4d505f2ed87c4ebea13318438097ac7a57260c37e72703bcf828260010183600401548460050160009054906101000a900473ffffffffffffffffffffffffffffffffffffffff163334604051610d5a969594939291906121da565b60405180910390a15050565b60018181548110610d7657600080fd5b9060005260206000209060060201600091509050806000015490806001018054610d9f90611a60565b80601f0160208091040260200160405190810160405280929190818152602001828054610dcb90611a60565b8015610e185780601f10610ded57610100808354040283529160200191610e18565b820191906000526020600020905b815481529060010190602001808311610dfb57829003601f168201915b505050505090806002018054610e2d90611a60565b80601f0160208091040260200160405190810160405280929190818152602001828054610e5990611a60565b8015610ea65780601f10610e7b57610100808354040283529160200191610ea6565b820191906000526020600020905b815481529060010190602001808311610e8957829003601f168201915b5050505050908060030154908060040154908060050160009054906101000a900473ffffffffffffffffffffffffffffffffffffffff16908060050160149054906101000a900460ff16905087565b60008054906101000a900473ffffffffffffffffffffffffffffffffffffffff1681565b60026020528060005260406000206000915090508054610f3890611a60565b80601f0160208091040260200160405190810160405280929190818152602001828054610f6490611a60565b8015610fb15780601f10610f8657610100808354040283529160200191610fb1565b820191906000526020600020905b815481529060010190602001808311610f9457829003601f168201915b505050505081565b600060018281548110610fcf57610fce611a91565b5b906000526020600020906006020190508060050160149054906101000a900460ff16611030576040517f08c379a00000000000000000000000000000000000000000000000000000000081526004016110279061228e565b60405180910390fd5b8060050160009054906101000a900473ffffffffffffffffffffffffffffffffffffffff1673ffffffffffffffffffffffffffffffffffffffff163373ffffffffffffffffffffffffffffffffffffffff16146110c2576040517f08c379a00000000000000000000000000000000000000000000000000000000081526004016110b990611b9e565b60405180910390fd5b60008160050160146101000a81548160ff0219169083151502179055507f3be3a5772abcfbfa3570887580227ad1ab78a1720f5b9f7931a477d60a0a383182826001018360050160009054906101000a900473ffffffffffffffffffffffffffffffffffffffff16846004015460405161113f9493929190611c57565b60405180910390a15050565b6001805490508110611192576040517f08c379a0000000000000000000000000000000000000000000000000000000008152600401611189906120ae565b60405180910390fd5b600181815481106111a6576111a5611a91565b5b906000526020600020906006020160050160149054906101000a900460ff16611204576040517f08c379a00000000000000000000000000000000000000000000000000000000081526004016111fb906122fa565b60405180910390fd5b60006001828154811061121a57611219611a91565b5b90600052602060002090600602019050600060036000848152602001908152602001600020905060005b81805490508110156113cd573373ffffffffffffffffffffffffffffffffffffffff1682828154811061127a57611279611a91565b5b906000526020600020906003020160010160009054906101000a900473ffffffffffffffffffffffffffffffffffffffff1673ffffffffffffffffffffffffffffffffffffffff16036113ba5760008282815481106112dc576112db611a91565b5b9060005260206000209060030201600201549050808460040160008282546113049190611fcd565b925050819055503373ffffffffffffffffffffffffffffffffffffffff166108fc829081150290604051600060405180830381858888f19350505050158015611351573d6000803e3d6000fd5b507fe9edfd6fd44e2d2d5924e3dd8cb1c982d7bc67ec27c0920caf2b4f34459e009185856001018660050160009054906101000a900473ffffffffffffffffffffffffffffffffffffffff1633856040516113b095949392919061231a565b60405180910390a1505b80806113c590612374565b915050611244565b50505050565b600081519050919050565b600082825260208201905092915050565b6000819050602082019050919050565b6000819050919050565b611412816113ff565b82525050565b600081519050919050565b600082825260208201905092915050565b60005b83811015611452578082015181840152602081019050611437565b60008484015250505050565b6000601f19601f8301169050919050565b600061147a82611418565b6114848185611423565b9350611494818560208601611434565b61149d8161145e565b840191505092915050565b600073ffffffffffffffffffffffffffffffffffffffff82169050919050565b60006114d3826114a8565b9050919050565b6114e3816114c8565b82525050565b60008115159050919050565b6114fe816114e9565b82525050565b600060e08301600083015161151c6000860182611409565b5060208301518482036020860152611534828261146f565b9150506040830151848203604086015261154e828261146f565b91505060608301516115636060860182611409565b5060808301516115766080860182611409565b5060a083015161158960a08601826114da565b5060c083015161159c60c08601826114f5565b508091505092915050565b60006115b38383611504565b905092915050565b6000602082019050919050565b60006115d3826113d3565b6115dd81856113de565b9350836020820285016115ef856113ef565b8060005b8581101561162b578484038952815161160c85826115a7565b9450611617836115bb565b925060208a019950506001810190506115f3565b50829750879550505050505092915050565b6000602082019050818103600083015261165781846115c8565b905092915050565b611668816113ff565b82525050565b6000602082019050611683600083018461165f565b92915050565b6000604051905090565b600080fd5b600080fd5b6116a6816113ff565b81146116b157600080fd5b50565b6000813590506116c38161169d565b92915050565b6000602082840312156116df576116de611693565b5b60006116ed848285016116b4565b91505092915050565b600080fd5b600080fd5b7f4e487b7100000000000000000000000000000000000000000000000000000000600052604160045260246000fd5b6117388261145e565b810181811067ffffffffffffffff8211171561175757611756611700565b5b80604052505050565b600061176a611689565b9050611776828261172f565b919050565b600067ffffffffffffffff82111561179657611795611700565b5b61179f8261145e565b9050602081019050919050565b82818337600083830152505050565b60006117ce6117c98461177b565b611760565b9050828152602081018484840111156117ea576117e96116fb565b5b6117f58482856117ac565b509392505050565b600082601f830112611812576118116116f6565b5b81356118228482602086016117bb565b91505092915050565b60008060006060848603121561184457611843611693565b5b600084013567ffffffffffffffff81111561186257611861611698565b5b61186e868287016117fd565b935050602084013567ffffffffffffffff81111561188f5761188e611698565b5b61189b868287016117fd565b92505060406118ac868287016116b4565b9150509250925092565b600082825260208201905092915050565b60006118d282611418565b6118dc81856118b6565b93506118ec818560208601611434565b6118f58161145e565b840191505092915050565b611909816114c8565b82525050565b611918816114e9565b82525050565b600060e082019050611933600083018a61165f565b818103602083015261194581896118c7565b9050818103604083015261195981886118c7565b9050611968606083018761165f565b611975608083018661165f565b61198260a0830185611900565b61198f60c083018461190f565b98975050505050505050565b60006020820190506119b06000830184611900565b92915050565b6119bf816114c8565b81146119ca57600080fd5b50565b6000813590506119dc816119b6565b92915050565b6000602082840312156119f8576119f7611693565b5b6000611a06848285016119cd565b91505092915050565b60006020820190508181036000830152611a2981846118c7565b905092915050565b7f4e487b7100000000000000000000000000000000000000000000000000000000600052602260045260246000fd5b60006002820490506001821680611a7857607f821691505b602082108103611a8b57611a8a611a31565b5b50919050565b7f4e487b7100000000000000000000000000000000000000000000000000000000600052603260045260246000fd5b7f57697368206973207374696c6c2066756e6461626c6500000000000000000000600082015250565b6000611af66016836118b6565b9150611b0182611ac0565b602082019050919050565b60006020820190508181036000830152611b2581611ae9565b9050919050565b7f596f7520617265206e6f7420746865206f776e6572206f66207468652077697360008201527f6800000000000000000000000000000000000000000000000000000000000000602082015250565b6000611b886021836118b6565b9150611b9382611b2c565b604082019050919050565b60006020820190508181036000830152611bb781611b7b565b9050919050565b60008190508160005260206000209050919050565b60008154611be081611a60565b611bea81866118b6565b94506001821660008114611c055760018114611c1b57611c4e565b60ff198316865281151560200286019350611c4e565b611c2485611bbe565b60005b83811015611c4657815481890152600182019150602081019050611c27565b808801955050505b50505092915050565b6000608082019050611c6c600083018761165f565b8181036020830152611c7e8186611bd3565b9050611c8d6040830185611900565b611c9a606083018461165f565b95945050505050565b7f476f616c20616d6f756e742073686f756c64206265206772656174657220746860008201527f616e203000000000000000000000000000000000000000000000000000000000602082015250565b6000611cff6024836118b6565b9150611d0a82611ca3565b604082019050919050565b60006020820190508181036000830152611d2e81611cf2565b9050919050565b60006020601f8301049050919050565b600082821b905092915050565b600060088302611d827fffffffffffffffffffffffffffffffffffffffffffffffffffffffffffffffff82611d45565b611d8c8683611d45565b95508019841693508086168417925050509392505050565b6000819050919050565b6000611dc9611dc4611dbf846113ff565b611da4565b6113ff565b9050919050565b6000819050919050565b611de383611dae565b611df7611def82611dd0565b848454611d52565b825550505050565b600090565b611e0c611dff565b611e17818484611dda565b505050565b5b81811015611e3b57611e30600082611e04565b600181019050611e1d565b5050565b601f821115611e8057611e5181611bbe565b611e5a84611d35565b81016020851015611e69578190505b611e7d611e7585611d35565b830182611e1c565b50505b505050565b600082821c905092915050565b6000611ea360001984600802611e85565b1980831691505092915050565b6000611ebc8383611e92565b9150826002028217905092915050565b611ed582611418565b67ffffffffffffffff811115611eee57611eed611700565b5b611ef88254611a60565b611f03828285611e3f565b600060209050601f831160018114611f365760008415611f24578287015190505b611f2e8582611eb0565b865550611f96565b601f198416611f4486611bbe565b60005b82811015611f6c57848901518255600182019150602085019450602081019050611f47565b86831015611f895784890151611f85601f891682611e92565b8355505b6001600288020188555050505b505050505050565b7f4e487b7100000000000000000000000000000000000000000000000000000000600052601160045260246000fd5b6000611fd8826113ff565b9150611fe3836113ff565b9250828203905081811115611ffb57611ffa611f9e565b5b92915050565b600060a082019050612016600083018861165f565b818103602083015261202881876118c7565b9050818103604083015261203c81866118c7565b905061204b606083018561165f565b6120586080830184611900565b9695505050505050565b7f496e76616c696420776973682069640000000000000000000000000000000000600082015250565b6000612098600f836118b6565b91506120a382612062565b602082019050919050565b600060208201905081810360008301526120c78161208b565b9050919050565b7f416d6f756e742073686f756c642062652067726561746572207468616e203000600082015250565b6000612104601f836118b6565b915061210f826120ce565b602082019050919050565b60006020820190508181036000830152612133816120f7565b9050919050565b7f57697368206973206e6f742066756e6461626c65000000000000000000000000600082015250565b60006121706014836118b6565b915061217b8261213a565b602082019050919050565b6000602082019050818103600083015261219f81612163565b9050919050565b60006121b1826113ff565b91506121bc836113ff565b92508282019050808211156121d4576121d3611f9e565b5b92915050565b600060c0820190506121ef600083018961165f565b81810360208301526122018188611bd3565b9050612210604083018761165f565b61221d6060830186611900565b61222a6080830185611900565b61223760a083018461165f565b979650505050505050565b7f57697368206973206e6f742066756e6461626c6520746f20636c6f7365000000600082015250565b6000612278601d836118b6565b915061228382612242565b602082019050919050565b600060208201905081810360008301526122a78161226b565b9050919050565b7f57697368206973206e6f742066756e6461626c6520746f20726566756e640000600082015250565b60006122e4601e836118b6565b91506122ef826122ae565b602082019050919050565b60006020820190508181036000830152612313816122d7565b9050919050565b600060a08201905061232f600083018861165f565b81810360208301526123418187611bd3565b90506123506040830186611900565b61235d6060830185611900565b61236a608083018461165f565b9695505050505050565b600061237f826113ff565b91507fffffffffffffffffffffffffffffffffffffffffffffffffffffffffffffffff82036123b1576123b0611f9e565b5b60018201905091905056fea26469706673582212201481c05afe507fed121188915f4e01717eeb195edb91283cacb5c0acf90b893864736f6c63430008140033",
  "linkReferences": {},
  "deployedLinkReferences": {}
}