{
  "_format": "hh-sol-artifact-1",
  "contractName": "Wishlist",
  "sourceName": "contracts/Wishlist.sol",
  "abi": [
    {
      "inputs": [
        {
          "internalType": "address",
          "name": "_tokenAddress",
          "type": "address"
        }
      ],
      "stateMutability": "nonpayable",
      "type": "constructor"
    },
    {
      "anonymous": false,
      "inputs": [
        {
          "indexed": false,
          "internalType": "address",
          "name": "user",
          "type": "address"
        },
        {
          "indexed": false,
          "internalType": "string",
          "name": "name",
          "type": "string"
        }
      ],
      "name": "UserRegistered",
      "type": "event"
    },
    {
      "anonymous": false,
      "inputs": [
        {
          "indexed": false,
          "internalType": "uint256",
          "name": "id",
          "type": "uint256"
        },
        {
          "indexed": false,
          "internalType": "string",
          "name": "title",
          "type": "string"
        },
        {
          "indexed": false,
          "internalType": "address",
          "name": "wisher",
          "type": "address"
        },
        {
          "indexed": false,
          "internalType": "uint256",
          "name": "currentAmount",
          "type": "uint256"
        }
      ],
      "name": "WishClosed",
      "type": "event"
    },
    {
      "anonymous": false,
      "inputs": [
        {
          "indexed": false,
          "internalType": "uint256",
          "name": "id",
          "type": "uint256"
        },
        {
          "indexed": false,
          "internalType": "string",
          "name": "title",
          "type": "string"
        },
        {
          "indexed": false,
          "internalType": "string",
          "name": "description",
          "type": "string"
        },
        {
          "indexed": false,
          "internalType": "uint256",
          "name": "goalAmount",
          "type": "uint256"
        },
        {
          "indexed": false,
          "internalType": "address",
          "name": "wisher",
          "type": "address"
        }
      ],
      "name": "WishCreated",
      "type": "event"
    },
    {
      "anonymous": false,
      "inputs": [
        {
          "indexed": false,
          "internalType": "uint256",
          "name": "id",
          "type": "uint256"
        },
        {
          "indexed": false,
          "internalType": "string",
          "name": "title",
          "type": "string"
        },
        {
          "indexed": false,
          "internalType": "uint256",
          "name": "currentAmount",
          "type": "uint256"
        },
        {
          "indexed": false,
          "internalType": "address",
          "name": "wisher",
          "type": "address"
        },
        {
          "indexed": false,
          "internalType": "address",
          "name": "donater",
          "type": "address"
        },
        {
          "indexed": false,
          "internalType": "uint256",
          "name": "donationAmount",
          "type": "uint256"
        }
      ],
      "name": "WishFunded",
      "type": "event"
    },
    {
      "anonymous": false,
      "inputs": [
        {
          "indexed": false,
          "internalType": "uint256",
          "name": "id",
          "type": "uint256"
        },
        {
          "indexed": false,
          "internalType": "string",
          "name": "title",
          "type": "string"
        },
        {
          "indexed": false,
          "internalType": "address",
          "name": "wisher",
          "type": "address"
        },
        {
          "indexed": false,
          "internalType": "address",
          "name": "donater",
          "type": "address"
        },
        {
          "indexed": false,
          "internalType": "uint256",
          "name": "refundAmount",
          "type": "uint256"
        }
      ],
      "name": "WishRefunded",
      "type": "event"
    },
    {
      "anonymous": false,
      "inputs": [
        {
          "indexed": false,
          "internalType": "uint256",
          "name": "id",
          "type": "uint256"
        },
        {
          "indexed": false,
          "internalType": "string",
          "name": "title",
          "type": "string"
        },
        {
          "indexed": false,
          "internalType": "address",
          "name": "wisher",
          "type": "address"
        },
        {
          "indexed": false,
          "internalType": "uint256",
          "name": "currentAmount",
          "type": "uint256"
        }
      ],
      "name": "WishWithdrawn",
      "type": "event"
    },
    {
      "inputs": [
        {
          "internalType": "uint256",
          "name": "_wishId",
          "type": "uint256"
        }
      ],
      "name": "closeWish",
      "outputs": [],
      "stateMutability": "nonpayable",
      "type": "function"
    },
    {
      "inputs": [
        {
          "internalType": "string",
          "name": "_title",
          "type": "string"
        },
        {
          "internalType": "string",
          "name": "_description",
          "type": "string"
        },
        {
          "internalType": "uint256",
          "name": "_goalAmount",
          "type": "uint256"
        }
      ],
      "name": "createWish",
      "outputs": [],
      "stateMutability": "nonpayable",
      "type": "function"
    },
    {
      "inputs": [
        {
          "internalType": "uint256",
          "name": "_wishId",
          "type": "uint256"
        },
        {
          "internalType": "uint256",
          "name": "_amount",
          "type": "uint256"
        }
      ],
      "name": "fundWish",
      "outputs": [],
      "stateMutability": "nonpayable",
      "type": "function"
    },
    {
      "inputs": [
        {
          "internalType": "address",
          "name": "account",
          "type": "address"
        }
      ],
      "name": "getUsername",
      "outputs": [
        {
          "internalType": "string",
          "name": "",
          "type": "string"
        }
      ],
      "stateMutability": "view",
      "type": "function"
    },
    {
      "inputs": [],
      "name": "getWishes",
      "outputs": [
        {
          "components": [
            {
              "internalType": "uint256",
              "name": "id",
              "type": "uint256"
            },
            {
              "internalType": "string",
              "name": "title",
              "type": "string"
            },
            {
              "internalType": "string",
              "name": "description",
              "type": "string"
            },
            {
              "internalType": "uint256",
              "name": "goalAmount",
              "type": "uint256"
            },
            {
              "internalType": "uint256",
              "name": "currentAmount",
              "type": "uint256"
            },
            {
              "internalType": "address",
              "name": "wisher",
              "type": "address"
            },
            {
              "internalType": "bool",
              "name": "isFundable",
              "type": "bool"
            }
          ],
          "internalType": "struct Wishlist.WishModel[]",
          "name": "",
          "type": "tuple[]"
        }
      ],
      "stateMutability": "view",
      "type": "function"
    },
    {
      "inputs": [],
      "name": "owner",
      "outputs": [
        {
          "internalType": "address",
          "name": "",
          "type": "address"
        }
      ],
      "stateMutability": "view",
      "type": "function"
    },
    {
      "inputs": [
        {
          "internalType": "address",
          "name": "account",
          "type": "address"
        },
        {
          "internalType": "uint256",
          "name": "_id",
          "type": "uint256"
        }
      ],
      "name": "refundWish",
      "outputs": [],
      "stateMutability": "nonpayable",
      "type": "function"
    },
    {
      "inputs": [],
      "name": "token",
      "outputs": [
        {
          "internalType": "contract IERC20",
          "name": "",
          "type": "address"
        }
      ],
      "stateMutability": "view",
      "type": "function"
    },
    {
      "inputs": [
        {
          "internalType": "address",
          "name": "",
          "type": "address"
        }
      ],
      "name": "users",
      "outputs": [
        {
          "internalType": "string",
          "name": "",
          "type": "string"
        }
      ],
      "stateMutability": "view",
      "type": "function"
    },
    {
      "inputs": [
        {
          "internalType": "uint256",
          "name": "",
          "type": "uint256"
        }
      ],
      "name": "wishes",
      "outputs": [
        {
          "internalType": "uint256",
          "name": "id",
          "type": "uint256"
        },
        {
          "internalType": "string",
          "name": "title",
          "type": "string"
        },
        {
          "internalType": "string",
          "name": "description",
          "type": "string"
        },
        {
          "internalType": "uint256",
          "name": "goalAmount",
          "type": "uint256"
        },
        {
          "internalType": "uint256",
          "name": "currentAmount",
          "type": "uint256"
        },
        {
          "internalType": "address",
          "name": "wisher",
          "type": "address"
        },
        {
          "internalType": "bool",
          "name": "isFundable",
          "type": "bool"
        }
      ],
      "stateMutability": "view",
      "type": "function"
    },
    {
      "inputs": [
        {
          "internalType": "uint256",
          "name": "_id",
          "type": "uint256"
        }
      ],
      "name": "withdrawFunds",
      "outputs": [],
      "stateMutability": "nonpayable",
      "type": "function"
    }
  ],
  "bytecode": "0x60806040523480156200001157600080fd5b5060405162002c5038038062002c5083398181016040528101906200003791906200028c565b806000806101000a81548173ffffffffffffffffffffffffffffffffffffffff021916908373ffffffffffffffffffffffffffffffffffffffff16021790555060026040518060e00160405280600081526020016040518060400160405280600d81526020017f4275792061206e6577206361720000000000000000000000000000000000000081525081526020016040518060400160405280601781526020017f492077616e7420746f206275792061206e657720636172000000000000000000815250815260200169152d02c7e14af68000008152602001600081526020013373ffffffffffffffffffffffffffffffffffffffff16815260200160011515815250908060018154018082558091505060019003906000526020600020906006020160009091909190915060008201518160000155602082015181600101908162000185919062000538565b5060408201518160020190816200019d919062000538565b50606082015181600301556080820151816004015560a08201518160050160006101000a81548173ffffffffffffffffffffffffffffffffffffffff021916908373ffffffffffffffffffffffffffffffffffffffff16021790555060c08201518160050160146101000a81548160ff0219169083151502179055505050506200061f565b600080fd5b600073ffffffffffffffffffffffffffffffffffffffff82169050919050565b6000620002548262000227565b9050919050565b620002668162000247565b81146200027257600080fd5b50565b60008151905062000286816200025b565b92915050565b600060208284031215620002a557620002a462000222565b5b6000620002b58482850162000275565b91505092915050565b600081519050919050565b7f4e487b7100000000000000000000000000000000000000000000000000000000600052604160045260246000fd5b7f4e487b7100000000000000000000000000000000000000000000000000000000600052602260045260246000fd5b600060028204905060018216806200034057607f821691505b602082108103620003565762000355620002f8565b5b50919050565b60008190508160005260206000209050919050565b60006020601f8301049050919050565b600082821b905092915050565b600060088302620003c07fffffffffffffffffffffffffffffffffffffffffffffffffffffffffffffffff8262000381565b620003cc868362000381565b95508019841693508086168417925050509392505050565b6000819050919050565b6000819050919050565b600062000419620004136200040d84620003e4565b620003ee565b620003e4565b9050919050565b6000819050919050565b6200043583620003f8565b6200044d620004448262000420565b8484546200038e565b825550505050565b600090565b6200046462000455565b620004718184846200042a565b505050565b5b8181101562000499576200048d6000826200045a565b60018101905062000477565b5050565b601f821115620004e857620004b2816200035c565b620004bd8462000371565b81016020851015620004cd578190505b620004e5620004dc8562000371565b83018262000476565b50505b505050565b600082821c905092915050565b60006200050d60001984600802620004ed565b1980831691505092915050565b6000620005288383620004fa565b9150826002028217905092915050565b6200054382620002be565b67ffffffffffffffff8111156200055f576200055e620002c9565b5b6200056b825462000327565b620005788282856200049d565b600060209050601f831160018114620005b057600084156200059b578287015190505b620005a785826200051a565b86555062000617565b601f198416620005c0866200035c565b60005b82811015620005ea57848901518255600182019150602085019450602081019050620005c3565b868310156200060a578489015162000606601f891682620004fa565b8355505b6001600288020188555050505b505050505050565b612621806200062f6000396000f3fe608060405234801561001057600080fd5b50600436106100a95760003560e01c80638da5cb5b116100715780638da5cb5b14610156578063a87430ba14610174578063b97718ae146101a4578063c2182dde146101c0578063ce43c032146101dc578063fc0c546a1461020c576100a9565b80630153b82b146100ae578063155dd5ee146100cc5780631953f222146100e85780634702aab3146101045780638820e46614610120575b600080fd5b6100b661022a565b6040516100c39190611731565b60405180910390f35b6100e660048036038101906100e19190611793565b61043c565b005b61010260048036038101906100fd91906118f5565b6106f1565b005b61011e600480360381019061011991906119ac565b6108cc565b005b61013a60048036038101906101359190611793565b610ca4565b60405161014d9796959493929190611a63565b60405180910390f35b61015e610e33565b60405161016b9190611ae0565b60405180910390f35b61018e60048036038101906101899190611afb565b610e59565b60405161019b9190611b28565b60405180910390f35b6101be60048036038101906101b99190611793565b610ef9565b005b6101da60048036038101906101d59190611b4a565b61108b565b005b6101f660048036038101906101f19190611afb565b6113d2565b6040516102039190611b28565b60405180910390f35b6102146114a3565b6040516102219190611be9565b60405180910390f35b60606002805480602002602001604051908101604052809291908181526020016000905b8282101561043357838290600052602060002090600602016040518060e00160405290816000820154815260200160018201805461028b90611c33565b80601f01602080910402602001604051908101604052809291908181526020018280546102b790611c33565b80156103045780601f106102d957610100808354040283529160200191610304565b820191906000526020600020905b8154815290600101906020018083116102e757829003601f168201915b5050505050815260200160028201805461031d90611c33565b80601f016020809104026020016040519081016040528092919081815260200182805461034990611c33565b80156103965780601f1061036b57610100808354040283529160200191610396565b820191906000526020600020905b81548152906001019060200180831161037957829003601f168201915b5050505050815260200160038201548152602001600482015481526020016005820160009054906101000a900473ffffffffffffffffffffffffffffffffffffffff1673ffffffffffffffffffffffffffffffffffffffff1673ffffffffffffffffffffffffffffffffffffffff1681526020016005820160149054906101000a900460ff1615151515815250508152602001906001019061024e565b50505050905090565b600081118015610450575060028054905081105b61048f576040517f08c379a000000000000000000000000000000000000000000000000000000000815260040161048690611cb0565b60405180910390fd5b600281815481106104a3576104a2611cd0565b5b906000526020600020906006020160050160009054906101000a900473ffffffffffffffffffffffffffffffffffffffff1673ffffffffffffffffffffffffffffffffffffffff163373ffffffffffffffffffffffffffffffffffffffff1614610542576040517f08c379a000000000000000000000000000000000000000000000000000000000815260040161053990611d71565b60405180910390fd5b60008054906101000a900473ffffffffffffffffffffffffffffffffffffffff1673ffffffffffffffffffffffffffffffffffffffff166323b872dd600160009054906101000a900473ffffffffffffffffffffffffffffffffffffffff1633600285815481106105b6576105b5611cd0565b5b9060005260206000209060060201600401546040518463ffffffff1660e01b81526004016105e693929190611d91565b6020604051808303816000875af1158015610605573d6000803e3d6000fd5b505050506040513d601f19601f820116820180604052508101906106299190611df4565b506000600282815481106106405761063f611cd0565b5b906000526020600020906006020160050160146101000a81548160ff0219169083151502179055507f8aedd9e32d952f4dcfb8653767759e20c7a0ae32d3204478d0ceae10fe71fc84816002838154811061069e5761069d611cd0565b5b906000526020600020906006020160010133600285815481106106c4576106c3611cd0565b5b9060005260206000209060060201600401546040516106e69493929190611eba565b60405180910390a150565b60008111610734576040517f08c379a000000000000000000000000000000000000000000000000000000000815260040161072b90611f78565b60405180910390fd5b60026040518060e001604052806002805490508152602001858152602001848152602001670de0b6b3a76400008461076c9190611fc7565b8152602001600081526020013373ffffffffffffffffffffffffffffffffffffffff1681526020016001151581525090806001815401808255809150506001900390600052602060002090600602016000909190919091506000820151816000015560208201518160010190816107e39190612196565b5060408201518160020190816107f99190612196565b50606082015181600301556080820151816004015560a08201518160050160006101000a81548173ffffffffffffffffffffffffffffffffffffffff021916908373ffffffffffffffffffffffffffffffffffffffff16021790555060c08201518160050160146101000a81548160ff02191690831515021790555050507f229b523dc237749feb370617372f075a89a237e7b3badee63a20a1f393a01e4360016002805490506108aa9190612268565b848484336040516108bf95949392919061229c565b60405180910390a1505050565b6000811180156108e0575060028054905081105b61091f576040517f08c379a000000000000000000000000000000000000000000000000000000000815260040161091690611cb0565b60405180910390fd5b6002818154811061093357610932611cd0565b5b906000526020600020906006020160050160149054906101000a900460ff16610991576040517f08c379a000000000000000000000000000000000000000000000000000000000815260040161098890612349565b60405180910390fd5b6000600282815481106109a7576109a6611cd0565b5b90600052602060002090600602019050600060046000848152602001908152602001600020805480602002602001604051908101604052809291908181526020016000905b82821015610a885783829060005260206000209060030201604051806060016040529081600082015481526020016001820160009054906101000a900473ffffffffffffffffffffffffffffffffffffffff1673ffffffffffffffffffffffffffffffffffffffff1673ffffffffffffffffffffffffffffffffffffffff168152602001600282015481525050815260200190600101906109ec565b50505050905060005b8151811015610c9d578473ffffffffffffffffffffffffffffffffffffffff16828281518110610ac457610ac3611cd0565b5b60200260200101516020015173ffffffffffffffffffffffffffffffffffffffff1603610c8a5760008054906101000a900473ffffffffffffffffffffffffffffffffffffffff1673ffffffffffffffffffffffffffffffffffffffff166323b872dd600160009054906101000a900473ffffffffffffffffffffffffffffffffffffffff1633858581518110610b5e57610b5d611cd0565b5b6020026020010151604001516040518463ffffffff1660e01b8152600401610b8893929190611d91565b6020604051808303816000875af1158015610ba7573d6000803e3d6000fd5b505050506040513d601f19601f82011682018060405250810190610bcb9190611df4565b50818181518110610bdf57610bde611cd0565b5b602002602001015160400151836004016000828254610bfe9190612268565b925050819055507fe9edfd6fd44e2d2d5924e3dd8cb1c982d7bc67ec27c0920caf2b4f34459e009184846001018560050160009054906101000a900473ffffffffffffffffffffffffffffffffffffffff1633868681518110610c6457610c63611cd0565b5b602002602001015160400151604051610c81959493929190612369565b60405180910390a15b8080610c95906123c3565b915050610a91565b5050505050565b60028181548110610cb457600080fd5b9060005260206000209060060201600091509050806000015490806001018054610cdd90611c33565b80601f0160208091040260200160405190810160405280929190818152602001828054610d0990611c33565b8015610d565780601f10610d2b57610100808354040283529160200191610d56565b820191906000526020600020905b815481529060010190602001808311610d3957829003601f168201915b505050505090806002018054610d6b90611c33565b80601f0160208091040260200160405190810160405280929190818152602001828054610d9790611c33565b8015610de45780601f10610db957610100808354040283529160200191610de4565b820191906000526020600020905b815481529060010190602001808311610dc757829003601f168201915b5050505050908060030154908060040154908060050160009054906101000a900473ffffffffffffffffffffffffffffffffffffffff16908060050160149054906101000a900460ff16905087565b600160009054906101000a900473ffffffffffffffffffffffffffffffffffffffff1681565b60036020528060005260406000206000915090508054610e7890611c33565b80601f0160208091040260200160405190810160405280929190818152602001828054610ea490611c33565b8015610ef15780601f10610ec657610100808354040283529160200191610ef1565b820191906000526020600020905b815481529060010190602001808311610ed457829003601f168201915b505050505081565b600060028281548110610f0f57610f0e611cd0565b5b906000526020600020906006020190508060050160149054906101000a900460ff16610f70576040517f08c379a0000000000000000000000000000000000000000000000000000000008152600401610f6790612457565b60405180910390fd5b8060050160009054906101000a900473ffffffffffffffffffffffffffffffffffffffff1673ffffffffffffffffffffffffffffffffffffffff163373ffffffffffffffffffffffffffffffffffffffff1614611002576040517f08c379a0000000000000000000000000000000000000000000000000000000008152600401610ff990611d71565b60405180910390fd5b60008160050160146101000a81548160ff0219169083151502179055507f3be3a5772abcfbfa3570887580227ad1ab78a1720f5b9f7931a477d60a0a383182826001018360050160009054906101000a900473ffffffffffffffffffffffffffffffffffffffff16846004015460405161107f9493929190611eba565b60405180910390a15050565b600081116110ce576040517f08c379a00000000000000000000000000000000000000000000000000000000081526004016110c5906124c3565b60405180910390fd5b6000821180156110e2575060028054905082105b611121576040517f08c379a000000000000000000000000000000000000000000000000000000000815260040161111890611cb0565b60405180910390fd5b6002828154811061113557611134611cd0565b5b906000526020600020906006020160050160149054906101000a900460ff16611193576040517f08c379a000000000000000000000000000000000000000000000000000000000815260040161118a9061252f565b60405180910390fd5b6000600283815481106111a9576111a8611cd0565b5b9060005260206000209060060201905060008054906101000a900473ffffffffffffffffffffffffffffffffffffffff1673ffffffffffffffffffffffffffffffffffffffff166323b872dd33600160009054906101000a900473ffffffffffffffffffffffffffffffffffffffff16856040518463ffffffff1660e01b815260040161123893929190611d91565b6020604051808303816000875af1158015611257573d6000803e3d6000fd5b505050506040513d601f19601f8201168201806040525081019061127b9190611df4565b5081816004016000828254611290919061254f565b925050819055506004600084815260200190815260200160002060405180606001604052808581526020013373ffffffffffffffffffffffffffffffffffffffff1681526020018481525090806001815401808255809150506001900390600052602060002090600302016000909190919091506000820151816000015560208201518160010160006101000a81548173ffffffffffffffffffffffffffffffffffffffff021916908373ffffffffffffffffffffffffffffffffffffffff1602179055506040820151816002015550507fc37b50c58e9d90c4d505f2ed87c4ebea13318438097ac7a57260c37e72703bcf838260010183600401548460050160009054906101000a900473ffffffffffffffffffffffffffffffffffffffff1633876040516113c596959493929190612583565b60405180910390a1505050565b6060600360008373ffffffffffffffffffffffffffffffffffffffff1673ffffffffffffffffffffffffffffffffffffffff168152602001908152602001600020805461141e90611c33565b80601f016020809104026020016040519081016040528092919081815260200182805461144a90611c33565b80156114975780601f1061146c57610100808354040283529160200191611497565b820191906000526020600020905b81548152906001019060200180831161147a57829003601f168201915b50505050509050919050565b60008054906101000a900473ffffffffffffffffffffffffffffffffffffffff1681565b600081519050919050565b600082825260208201905092915050565b6000819050602082019050919050565b6000819050919050565b611506816114f3565b82525050565b600081519050919050565b600082825260208201905092915050565b60005b8381101561154657808201518184015260208101905061152b565b60008484015250505050565b6000601f19601f8301169050919050565b600061156e8261150c565b6115788185611517565b9350611588818560208601611528565b61159181611552565b840191505092915050565b600073ffffffffffffffffffffffffffffffffffffffff82169050919050565b60006115c78261159c565b9050919050565b6115d7816115bc565b82525050565b60008115159050919050565b6115f2816115dd565b82525050565b600060e08301600083015161161060008601826114fd565b50602083015184820360208601526116288282611563565b915050604083015184820360408601526116428282611563565b915050606083015161165760608601826114fd565b50608083015161166a60808601826114fd565b5060a083015161167d60a08601826115ce565b5060c083015161169060c08601826115e9565b508091505092915050565b60006116a783836115f8565b905092915050565b6000602082019050919050565b60006116c7826114c7565b6116d181856114d2565b9350836020820285016116e3856114e3565b8060005b8581101561171f5784840389528151611700858261169b565b945061170b836116af565b925060208a019950506001810190506116e7565b50829750879550505050505092915050565b6000602082019050818103600083015261174b81846116bc565b905092915050565b6000604051905090565b600080fd5b600080fd5b611770816114f3565b811461177b57600080fd5b50565b60008135905061178d81611767565b92915050565b6000602082840312156117a9576117a861175d565b5b60006117b78482850161177e565b91505092915050565b600080fd5b600080fd5b7f4e487b7100000000000000000000000000000000000000000000000000000000600052604160045260246000fd5b61180282611552565b810181811067ffffffffffffffff82111715611821576118206117ca565b5b80604052505050565b6000611834611753565b905061184082826117f9565b919050565b600067ffffffffffffffff8211156118605761185f6117ca565b5b61186982611552565b9050602081019050919050565b82818337600083830152505050565b600061189861189384611845565b61182a565b9050828152602081018484840111156118b4576118b36117c5565b5b6118bf848285611876565b509392505050565b600082601f8301126118dc576118db6117c0565b5b81356118ec848260208601611885565b91505092915050565b60008060006060848603121561190e5761190d61175d565b5b600084013567ffffffffffffffff81111561192c5761192b611762565b5b611938868287016118c7565b935050602084013567ffffffffffffffff81111561195957611958611762565b5b611965868287016118c7565b92505060406119768682870161177e565b9150509250925092565b611989816115bc565b811461199457600080fd5b50565b6000813590506119a681611980565b92915050565b600080604083850312156119c3576119c261175d565b5b60006119d185828601611997565b92505060206119e28582860161177e565b9150509250929050565b6119f5816114f3565b82525050565b600082825260208201905092915050565b6000611a178261150c565b611a2181856119fb565b9350611a31818560208601611528565b611a3a81611552565b840191505092915050565b611a4e816115bc565b82525050565b611a5d816115dd565b82525050565b600060e082019050611a78600083018a6119ec565b8181036020830152611a8a8189611a0c565b90508181036040830152611a9e8188611a0c565b9050611aad60608301876119ec565b611aba60808301866119ec565b611ac760a0830185611a45565b611ad460c0830184611a54565b98975050505050505050565b6000602082019050611af56000830184611a45565b92915050565b600060208284031215611b1157611b1061175d565b5b6000611b1f84828501611997565b91505092915050565b60006020820190508181036000830152611b428184611a0c565b905092915050565b60008060408385031215611b6157611b6061175d565b5b6000611b6f8582860161177e565b9250506020611b808582860161177e565b9150509250929050565b6000819050919050565b6000611baf611baa611ba58461159c565b611b8a565b61159c565b9050919050565b6000611bc182611b94565b9050919050565b6000611bd382611bb6565b9050919050565b611be381611bc8565b82525050565b6000602082019050611bfe6000830184611bda565b92915050565b7f4e487b7100000000000000000000000000000000000000000000000000000000600052602260045260246000fd5b60006002820490506001821680611c4b57607f821691505b602082108103611c5e57611c5d611c04565b5b50919050565b7f496e76616c696420776973682069640000000000000000000000000000000000600082015250565b6000611c9a600f836119fb565b9150611ca582611c64565b602082019050919050565b60006020820190508181036000830152611cc981611c8d565b9050919050565b7f4e487b7100000000000000000000000000000000000000000000000000000000600052603260045260246000fd5b7f596f7520617265206e6f7420746865206f776e6572206f66207468652077697360008201527f6800000000000000000000000000000000000000000000000000000000000000602082015250565b6000611d5b6021836119fb565b9150611d6682611cff565b604082019050919050565b60006020820190508181036000830152611d8a81611d4e565b9050919050565b6000606082019050611da66000830186611a45565b611db36020830185611a45565b611dc060408301846119ec565b949350505050565b611dd1816115dd565b8114611ddc57600080fd5b50565b600081519050611dee81611dc8565b92915050565b600060208284031215611e0a57611e0961175d565b5b6000611e1884828501611ddf565b91505092915050565b60008190508160005260206000209050919050565b60008154611e4381611c33565b611e4d81866119fb565b94506001821660008114611e685760018114611e7e57611eb1565b60ff198316865281151560200286019350611eb1565b611e8785611e21565b60005b83811015611ea957815481890152600182019150602081019050611e8a565b808801955050505b50505092915050565b6000608082019050611ecf60008301876119ec565b8181036020830152611ee18186611e36565b9050611ef06040830185611a45565b611efd60608301846119ec565b95945050505050565b7f476f616c20616d6f756e742073686f756c64206265206772656174657220746860008201527f616e203000000000000000000000000000000000000000000000000000000000602082015250565b6000611f626024836119fb565b9150611f6d82611f06565b604082019050919050565b60006020820190508181036000830152611f9181611f55565b9050919050565b7f4e487b7100000000000000000000000000000000000000000000000000000000600052601160045260246000fd5b6000611fd2826114f3565b9150611fdd836114f3565b9250828202611feb816114f3565b9150828204841483151761200257612001611f98565b5b5092915050565b60006020601f8301049050919050565b600082821b905092915050565b6000600883026120567fffffffffffffffffffffffffffffffffffffffffffffffffffffffffffffffff82612019565b6120608683612019565b95508019841693508086168417925050509392505050565b600061209361208e612089846114f3565b611b8a565b6114f3565b9050919050565b6000819050919050565b6120ad83612078565b6120c16120b98261209a565b848454612026565b825550505050565b600090565b6120d66120c9565b6120e18184846120a4565b505050565b5b81811015612105576120fa6000826120ce565b6001810190506120e7565b5050565b601f82111561214a5761211b81611e21565b61212484612009565b81016020851015612133578190505b61214761213f85612009565b8301826120e6565b50505b505050565b600082821c905092915050565b600061216d6000198460080261214f565b1980831691505092915050565b6000612186838361215c565b9150826002028217905092915050565b61219f8261150c565b67ffffffffffffffff8111156121b8576121b76117ca565b5b6121c28254611c33565b6121cd828285612109565b600060209050601f83116001811461220057600084156121ee578287015190505b6121f8858261217a565b865550612260565b601f19841661220e86611e21565b60005b8281101561223657848901518255600182019150602085019450602081019050612211565b86831015612253578489015161224f601f89168261215c565b8355505b6001600288020188555050505b505050505050565b6000612273826114f3565b915061227e836114f3565b925082820390508181111561229657612295611f98565b5b92915050565b600060a0820190506122b160008301886119ec565b81810360208301526122c38187611a0c565b905081810360408301526122d78186611a0c565b90506122e660608301856119ec565b6122f36080830184611a45565b9695505050505050565b7f57697368206973206e6f742066756e6461626c6520746f20726566756e640000600082015250565b6000612333601e836119fb565b915061233e826122fd565b602082019050919050565b6000602082019050818103600083015261236281612326565b9050919050565b600060a08201905061237e60008301886119ec565b81810360208301526123908187611e36565b905061239f6040830186611a45565b6123ac6060830185611a45565b6123b960808301846119ec565b9695505050505050565b60006123ce826114f3565b91507fffffffffffffffffffffffffffffffffffffffffffffffffffffffffffffffff8203612400576123ff611f98565b5b600182019050919050565b7f57697368206973206e6f742066756e6461626c6520746f20636c6f7365000000600082015250565b6000612441601d836119fb565b915061244c8261240b565b602082019050919050565b6000602082019050818103600083015261247081612434565b9050919050565b7f416d6f756e742073686f756c642062652067726561746572207468616e203000600082015250565b60006124ad601f836119fb565b91506124b882612477565b602082019050919050565b600060208201905081810360008301526124dc816124a0565b9050919050565b7f57697368206973206e6f742066756e6461626c65000000000000000000000000600082015250565b60006125196014836119fb565b9150612524826124e3565b602082019050919050565b600060208201905081810360008301526125488161250c565b9050919050565b600061255a826114f3565b9150612565836114f3565b925082820190508082111561257d5761257c611f98565b5b92915050565b600060c08201905061259860008301896119ec565b81810360208301526125aa8188611e36565b90506125b960408301876119ec565b6125c66060830186611a45565b6125d36080830185611a45565b6125e060a08301846119ec565b97965050505050505056fea2646970667358221220bbb496209d0eb9a82b29b81b34223540e17806a3a9ce002fa14b44f6081fe5c664736f6c63430008140033",
  "linkReferences": {},
  "deployedLinkReferences": {}
}