{
  "_format": "hh-sol-artifact-1",
  "contractName": "Wishlist",
  "sourceName": "contracts/Wishlist.sol",
  "abi": [
    {
      "anonymous": false,
      "inputs": [
        {
          "indexed": false,
          "internalType": "uint256",
          "name": "wishId",
          "type": "uint256"
        }
      ],
      "name": "WishClosed",
      "type": "event"
    },
    {
      "anonymous": false,
      "inputs": [
        {
          "indexed": false,
          "internalType": "uint256",
          "name": "wishId",
          "type": "uint256"
        },
        {
          "indexed": false,
          "internalType": "string",
          "name": "title",
          "type": "string"
        },
        {
          "indexed": false,
          "internalType": "uint256",
          "name": "goalAmount",
          "type": "uint256"
        }
      ],
      "name": "WishCreated",
      "type": "event"
    },
    {
      "anonymous": false,
      "inputs": [
        {
          "indexed": false,
          "internalType": "uint256",
          "name": "wishId",
          "type": "uint256"
        },
        {
          "indexed": false,
          "internalType": "uint256",
          "name": "amount",
          "type": "uint256"
        }
      ],
      "name": "WishFunded",
      "type": "event"
    },
    {
      "inputs": [
        {
          "internalType": "uint256",
          "name": "wishId",
          "type": "uint256"
        }
      ],
      "name": "closeWish",
      "outputs": [],
      "stateMutability": "nonpayable",
      "type": "function"
    },
    {
      "inputs": [
        {
          "internalType": "string",
          "name": "title",
          "type": "string"
        },
        {
          "internalType": "string",
          "name": "description",
          "type": "string"
        },
        {
          "internalType": "uint256",
          "name": "goalAmount",
          "type": "uint256"
        }
      ],
      "name": "createWish",
      "outputs": [],
      "stateMutability": "nonpayable",
      "type": "function"
    },
    {
      "inputs": [
        {
          "internalType": "uint256",
          "name": "wishId",
          "type": "uint256"
        }
      ],
      "name": "fundWish",
      "outputs": [],
      "stateMutability": "payable",
      "type": "function"
    },
    {
      "inputs": [],
      "name": "getAllWishes",
      "outputs": [
        {
          "components": [
            {
              "internalType": "string",
              "name": "title",
              "type": "string"
            },
            {
              "internalType": "string",
              "name": "description",
              "type": "string"
            },
            {
              "internalType": "uint256",
              "name": "goalAmount",
              "type": "uint256"
            },
            {
              "internalType": "uint256",
              "name": "currentAmount",
              "type": "uint256"
            },
            {
              "internalType": "bool",
              "name": "isClosed",
              "type": "bool"
            }
          ],
          "internalType": "struct Wishlist.Wish[]",
          "name": "",
          "type": "tuple[]"
        }
      ],
      "stateMutability": "view",
      "type": "function"
    },
    {
      "inputs": [],
      "name": "wishCount",
      "outputs": [
        {
          "internalType": "uint256",
          "name": "",
          "type": "uint256"
        }
      ],
      "stateMutability": "view",
      "type": "function"
    },
    {
      "inputs": [
        {
          "internalType": "uint256",
          "name": "",
          "type": "uint256"
        }
      ],
      "name": "wishes",
      "outputs": [
        {
          "internalType": "string",
          "name": "title",
          "type": "string"
        },
        {
          "internalType": "string",
          "name": "description",
          "type": "string"
        },
        {
          "internalType": "uint256",
          "name": "goalAmount",
          "type": "uint256"
        },
        {
          "internalType": "uint256",
          "name": "currentAmount",
          "type": "uint256"
        },
        {
          "internalType": "bool",
          "name": "isClosed",
          "type": "bool"
        }
      ],
      "stateMutability": "view",
      "type": "function"
    },
    {
      "inputs": [],
      "name": "withdraw",
      "outputs": [],
      "stateMutability": "nonpayable",
      "type": "function"
    }
  ],
  "bytecode": "0x608060405234801561001057600080fd5b506114cc806100206000396000f3fe6080604052600436106100705760003560e01c8063553875b21161004e578063553875b2146100e05780638820e466146100fc578063af0b9f1a1461013d578063b97718ae1461016857610070565b80631953f222146100755780633ccfd60b1461009e57806340569449146100b5575b600080fd5b34801561008157600080fd5b5061009c60048036038101906100979190610ac7565b610191565b005b3480156100aa57600080fd5b506100b361028d565b005b3480156100c157600080fd5b506100ca6102d6565b6040516100d79190610b61565b60405180910390f35b6100fa60048036038101906100f59190610b7c565b6102dc565b005b34801561010857600080fd5b50610123600480360381019061011e9190610b7c565b610476565b604051610134959493929190610c43565b60405180910390f35b34801561014957600080fd5b506101526105c9565b60405161015f9190610e4b565b60405180910390f35b34801561017457600080fd5b5061018f600480360381019061018a9190610b7c565b6107ea565b005b600160008154809291906101a490610e9c565b91905055506040518060a001604052808481526020018381526020018281526020016000815260200160001515815250600080600154815260200190815260200160002060008201518160000190816101fd91906110f0565b50602082015181600101908161021391906110f0565b50604082015181600201556060820151816003015560808201518160040160006101000a81548160ff0219169083151502179055509050507fd19c63d103ee697cf031fa5f7e2783c8b00942269ccefc8e83f4e1a757b5c11e6001548483604051610280939291906111c2565b60405180910390a1505050565b3373ffffffffffffffffffffffffffffffffffffffff166108fc479081150290604051600060405180830381858888f193505050501580156102d3573d6000803e3d6000fd5b50565b60015481565b6000811180156102ee57506001548111155b61032d576040517f08c379a00000000000000000000000000000000000000000000000000000000081526004016103249061124c565b60405180910390fd5b60008082815260200190815260200160002060040160009054906101000a900460ff1615610390576040517f08c379a0000000000000000000000000000000000000000000000000000000008152600401610387906112b8565b60405180910390fd5b600034116103d3576040517f08c379a00000000000000000000000000000000000000000000000000000000081526004016103ca9061134a565b60405180910390fd5b3460008083815260200190815260200160002060030160008282546103f8919061136a565b925050819055507fd35ac0dafa970c64d945594f8f3a36057b04d5aea889c4cc58c8d8949a2a985a813460405161043092919061139e565b60405180910390a160008082815260200190815260200160002060020154600080838152602001908152602001600020600301541061047357610472816107ea565b5b50565b600060205280600052604060002060009150905080600001805461049990610f13565b80601f01602080910402602001604051908101604052809291908181526020018280546104c590610f13565b80156105125780601f106104e757610100808354040283529160200191610512565b820191906000526020600020905b8154815290600101906020018083116104f557829003601f168201915b50505050509080600101805461052790610f13565b80601f016020809104026020016040519081016040528092919081815260200182805461055390610f13565b80156105a05780601f10610575576101008083540402835291602001916105a0565b820191906000526020600020905b81548152906001019060200180831161058357829003601f168201915b5050505050908060020154908060030154908060040160009054906101000a900460ff16905085565b6060600060015467ffffffffffffffff8111156105e9576105e8610966565b5b60405190808252806020026020018201604052801561062257816020015b61060f610906565b8152602001906001900390816106075790505b5090506000600190505b60015481116107e2576000808281526020019081526020016000206040518060a001604052908160008201805461066290610f13565b80601f016020809104026020016040519081016040528092919081815260200182805461068e90610f13565b80156106db5780601f106106b0576101008083540402835291602001916106db565b820191906000526020600020905b8154815290600101906020018083116106be57829003601f168201915b505050505081526020016001820180546106f490610f13565b80601f016020809104026020016040519081016040528092919081815260200182805461072090610f13565b801561076d5780601f106107425761010080835404028352916020019161076d565b820191906000526020600020905b81548152906001019060200180831161075057829003601f168201915b5050505050815260200160028201548152602001600382015481526020016004820160009054906101000a900460ff161515151581525050826001836107b391906113c7565b815181106107c4576107c36113fb565b5b602002602001018190525080806107da90610e9c565b91505061062c565b508091505090565b6000811180156107fc57506001548111155b61083b576040517f08c379a00000000000000000000000000000000000000000000000000000000081526004016108329061124c565b60405180910390fd5b60008082815260200190815260200160002060040160009054906101000a900460ff161561089e576040517f08c379a000000000000000000000000000000000000000000000000000000000815260040161089590611476565b60405180910390fd5b600160008083815260200190815260200160002060040160006101000a81548160ff0219169083151502179055507fd8cdecb83f34c3d034f406b916891c9495b0412a298581352880f19607f77ba5816040516108fb9190610b61565b60405180910390a150565b6040518060a00160405280606081526020016060815260200160008152602001600081526020016000151581525090565b6000604051905090565b600080fd5b600080fd5b600080fd5b600080fd5b6000601f19601f8301169050919050565b7f4e487b7100000000000000000000000000000000000000000000000000000000600052604160045260246000fd5b61099e82610955565b810181811067ffffffffffffffff821117156109bd576109bc610966565b5b80604052505050565b60006109d0610937565b90506109dc8282610995565b919050565b600067ffffffffffffffff8211156109fc576109fb610966565b5b610a0582610955565b9050602081019050919050565b82818337600083830152505050565b6000610a34610a2f846109e1565b6109c6565b905082815260208101848484011115610a5057610a4f610950565b5b610a5b848285610a12565b509392505050565b600082601f830112610a7857610a7761094b565b5b8135610a88848260208601610a21565b91505092915050565b6000819050919050565b610aa481610a91565b8114610aaf57600080fd5b50565b600081359050610ac181610a9b565b92915050565b600080600060608486031215610ae057610adf610941565b5b600084013567ffffffffffffffff811115610afe57610afd610946565b5b610b0a86828701610a63565b935050602084013567ffffffffffffffff811115610b2b57610b2a610946565b5b610b3786828701610a63565b9250506040610b4886828701610ab2565b9150509250925092565b610b5b81610a91565b82525050565b6000602082019050610b766000830184610b52565b92915050565b600060208284031215610b9257610b91610941565b5b6000610ba084828501610ab2565b91505092915050565b600081519050919050565b600082825260208201905092915050565b60005b83811015610be3578082015181840152602081019050610bc8565b60008484015250505050565b6000610bfa82610ba9565b610c048185610bb4565b9350610c14818560208601610bc5565b610c1d81610955565b840191505092915050565b60008115159050919050565b610c3d81610c28565b82525050565b600060a0820190508181036000830152610c5d8188610bef565b90508181036020830152610c718187610bef565b9050610c806040830186610b52565b610c8d6060830185610b52565b610c9a6080830184610c34565b9695505050505050565b600081519050919050565b600082825260208201905092915050565b6000819050602082019050919050565b600082825260208201905092915050565b6000610cec82610ba9565b610cf68185610cd0565b9350610d06818560208601610bc5565b610d0f81610955565b840191505092915050565b610d2381610a91565b82525050565b610d3281610c28565b82525050565b600060a0830160008301518482036000860152610d558282610ce1565b91505060208301518482036020860152610d6f8282610ce1565b9150506040830151610d846040860182610d1a565b506060830151610d976060860182610d1a565b506080830151610daa6080860182610d29565b508091505092915050565b6000610dc18383610d38565b905092915050565b6000602082019050919050565b6000610de182610ca4565b610deb8185610caf565b935083602082028501610dfd85610cc0565b8060005b85811015610e395784840389528151610e1a8582610db5565b9450610e2583610dc9565b925060208a01995050600181019050610e01565b50829750879550505050505092915050565b60006020820190508181036000830152610e658184610dd6565b905092915050565b7f4e487b7100000000000000000000000000000000000000000000000000000000600052601160045260246000fd5b6000610ea782610a91565b91507fffffffffffffffffffffffffffffffffffffffffffffffffffffffffffffffff8203610ed957610ed8610e6d565b5b600182019050919050565b7f4e487b7100000000000000000000000000000000000000000000000000000000600052602260045260246000fd5b60006002820490506001821680610f2b57607f821691505b602082108103610f3e57610f3d610ee4565b5b50919050565b60008190508160005260206000209050919050565b60006020601f8301049050919050565b600082821b905092915050565b600060088302610fa67fffffffffffffffffffffffffffffffffffffffffffffffffffffffffffffffff82610f69565b610fb08683610f69565b95508019841693508086168417925050509392505050565b6000819050919050565b6000610fed610fe8610fe384610a91565b610fc8565b610a91565b9050919050565b6000819050919050565b61100783610fd2565b61101b61101382610ff4565b848454610f76565b825550505050565b600090565b611030611023565b61103b818484610ffe565b505050565b5b8181101561105f57611054600082611028565b600181019050611041565b5050565b601f8211156110a45761107581610f44565b61107e84610f59565b8101602085101561108d578190505b6110a161109985610f59565b830182611040565b50505b505050565b600082821c905092915050565b60006110c7600019846008026110a9565b1980831691505092915050565b60006110e083836110b6565b9150826002028217905092915050565b6110f982610ba9565b67ffffffffffffffff81111561111257611111610966565b5b61111c8254610f13565b611127828285611063565b600060209050601f83116001811461115a5760008415611148578287015190505b61115285826110d4565b8655506111ba565b601f19841661116886610f44565b60005b828110156111905784890151825560018201915060208501945060208101905061116b565b868310156111ad57848901516111a9601f8916826110b6565b8355505b6001600288020188555050505b505050505050565b60006060820190506111d76000830186610b52565b81810360208301526111e98185610bef565b90506111f86040830184610b52565b949350505050565b7f5769736820646f6573206e6f742065786973742e000000000000000000000000600082015250565b6000611236601483610bb4565b915061124182611200565b602082019050919050565b6000602082019050818103600083015261126581611229565b9050919050565b7f5769736820697320636c6f7365642e0000000000000000000000000000000000600082015250565b60006112a2600f83610bb4565b91506112ad8261126c565b602082019050919050565b600060208201905081810360008301526112d181611295565b9050919050565b7f4d7573742073656e6420457468657220746f2066756e6420746865207769736860008201527f2e00000000000000000000000000000000000000000000000000000000000000602082015250565b6000611334602183610bb4565b915061133f826112d8565b604082019050919050565b6000602082019050818103600083015261136381611327565b9050919050565b600061137582610a91565b915061138083610a91565b925082820190508082111561139857611397610e6d565b5b92915050565b60006040820190506113b36000830185610b52565b6113c06020830184610b52565b9392505050565b60006113d282610a91565b91506113dd83610a91565b92508282039050818111156113f5576113f4610e6d565b5b92915050565b7f4e487b7100000000000000000000000000000000000000000000000000000000600052603260045260246000fd5b7f5769736820697320616c726561647920636c6f7365642e000000000000000000600082015250565b6000611460601783610bb4565b915061146b8261142a565b602082019050919050565b6000602082019050818103600083015261148f81611453565b905091905056fea26469706673582212208eb82aef8474a0e14f5b7fc72daca7371b8adbcbfd7759c9549e52b5ff4e7ef864736f6c63430008140033",
  "linkReferences": {},
  "deployedLinkReferences": {}
}