{
  "_format": "hh-sol-artifact-1",
  "contractName": "Wishlist",
  "sourceName": "contracts/Wishlist.sol",
  "abi": [
    {
      "inputs": [
        {
          "internalType": "address",
          "name": "_tokenAddress",
          "type": "address"
        }
      ],
      "stateMutability": "nonpayable",
      "type": "constructor"
    },
    {
      "anonymous": false,
      "inputs": [
        {
          "indexed": false,
          "internalType": "address",
          "name": "user",
          "type": "address"
        },
        {
          "indexed": false,
          "internalType": "string",
          "name": "name",
          "type": "string"
        }
      ],
      "name": "UserRegistered",
      "type": "event"
    },
    {
      "anonymous": false,
      "inputs": [
        {
          "indexed": false,
          "internalType": "uint256",
          "name": "id",
          "type": "uint256"
        },
        {
          "indexed": false,
          "internalType": "string",
          "name": "title",
          "type": "string"
        },
        {
          "indexed": false,
          "internalType": "address",
          "name": "wisher",
          "type": "address"
        },
        {
          "indexed": false,
          "internalType": "uint256",
          "name": "currentAmount",
          "type": "uint256"
        }
      ],
      "name": "WishClosed",
      "type": "event"
    },
    {
      "anonymous": false,
      "inputs": [
        {
          "indexed": false,
          "internalType": "uint256",
          "name": "id",
          "type": "uint256"
        },
        {
          "indexed": false,
          "internalType": "string",
          "name": "title",
          "type": "string"
        },
        {
          "indexed": false,
          "internalType": "string",
          "name": "description",
          "type": "string"
        },
        {
          "indexed": false,
          "internalType": "uint256",
          "name": "goalAmount",
          "type": "uint256"
        },
        {
          "indexed": false,
          "internalType": "address",
          "name": "wisher",
          "type": "address"
        }
      ],
      "name": "WishCreated",
      "type": "event"
    },
    {
      "anonymous": false,
      "inputs": [
        {
          "indexed": false,
          "internalType": "uint256",
          "name": "id",
          "type": "uint256"
        },
        {
          "indexed": false,
          "internalType": "string",
          "name": "title",
          "type": "string"
        },
        {
          "indexed": false,
          "internalType": "uint256",
          "name": "currentAmount",
          "type": "uint256"
        },
        {
          "indexed": false,
          "internalType": "address",
          "name": "wisher",
          "type": "address"
        },
        {
          "indexed": false,
          "internalType": "address",
          "name": "donater",
          "type": "address"
        },
        {
          "indexed": false,
          "internalType": "uint256",
          "name": "donationAmount",
          "type": "uint256"
        }
      ],
      "name": "WishFunded",
      "type": "event"
    },
    {
      "anonymous": false,
      "inputs": [
        {
          "indexed": false,
          "internalType": "uint256",
          "name": "id",
          "type": "uint256"
        },
        {
          "indexed": false,
          "internalType": "string",
          "name": "title",
          "type": "string"
        },
        {
          "indexed": false,
          "internalType": "address",
          "name": "wisher",
          "type": "address"
        },
        {
          "indexed": false,
          "internalType": "address",
          "name": "donater",
          "type": "address"
        },
        {
          "indexed": false,
          "internalType": "uint256",
          "name": "refundAmount",
          "type": "uint256"
        }
      ],
      "name": "WishRefunded",
      "type": "event"
    },
    {
      "anonymous": false,
      "inputs": [
        {
          "indexed": false,
          "internalType": "uint256",
          "name": "id",
          "type": "uint256"
        },
        {
          "indexed": false,
          "internalType": "string",
          "name": "title",
          "type": "string"
        },
        {
          "indexed": false,
          "internalType": "address",
          "name": "wisher",
          "type": "address"
        },
        {
          "indexed": false,
          "internalType": "uint256",
          "name": "currentAmount",
          "type": "uint256"
        }
      ],
      "name": "WishWithdrawn",
      "type": "event"
    },
    {
      "inputs": [
        {
          "internalType": "uint256",
          "name": "_wishId",
          "type": "uint256"
        }
      ],
      "name": "closeWish",
      "outputs": [],
      "stateMutability": "nonpayable",
      "type": "function"
    },
    {
      "inputs": [
        {
          "internalType": "string",
          "name": "_title",
          "type": "string"
        },
        {
          "internalType": "string",
          "name": "_description",
          "type": "string"
        },
        {
          "internalType": "uint256",
          "name": "_goalAmount",
          "type": "uint256"
        }
      ],
      "name": "createWish",
      "outputs": [],
      "stateMutability": "nonpayable",
      "type": "function"
    },
    {
      "inputs": [
        {
          "internalType": "uint256",
          "name": "_wishId",
          "type": "uint256"
        },
        {
          "internalType": "uint256",
          "name": "_amount",
          "type": "uint256"
        }
      ],
      "name": "fundWish",
      "outputs": [],
      "stateMutability": "nonpayable",
      "type": "function"
    },
    {
      "inputs": [
        {
          "internalType": "address",
          "name": "account",
          "type": "address"
        }
      ],
      "name": "getUsername",
      "outputs": [
        {
          "internalType": "string",
          "name": "",
          "type": "string"
        }
      ],
      "stateMutability": "view",
      "type": "function"
    },
    {
      "inputs": [
        {
          "internalType": "uint256",
          "name": "_id",
          "type": "uint256"
        }
      ],
      "name": "getWish",
      "outputs": [
        {
          "internalType": "uint256",
          "name": "",
          "type": "uint256"
        },
        {
          "internalType": "string",
          "name": "",
          "type": "string"
        },
        {
          "internalType": "string",
          "name": "",
          "type": "string"
        },
        {
          "internalType": "uint256",
          "name": "",
          "type": "uint256"
        },
        {
          "internalType": "uint256",
          "name": "",
          "type": "uint256"
        },
        {
          "internalType": "address",
          "name": "",
          "type": "address"
        },
        {
          "internalType": "bool",
          "name": "",
          "type": "bool"
        }
      ],
      "stateMutability": "view",
      "type": "function"
    },
    {
      "inputs": [],
      "name": "getWishCount",
      "outputs": [
        {
          "internalType": "uint256",
          "name": "",
          "type": "uint256"
        }
      ],
      "stateMutability": "view",
      "type": "function"
    },
    {
      "inputs": [],
      "name": "getWishes",
      "outputs": [
        {
          "components": [
            {
              "internalType": "uint256",
              "name": "id",
              "type": "uint256"
            },
            {
              "internalType": "string",
              "name": "title",
              "type": "string"
            },
            {
              "internalType": "string",
              "name": "description",
              "type": "string"
            },
            {
              "internalType": "uint256",
              "name": "goalAmount",
              "type": "uint256"
            },
            {
              "internalType": "uint256",
              "name": "currentAmount",
              "type": "uint256"
            },
            {
              "internalType": "address",
              "name": "wisher",
              "type": "address"
            },
            {
              "internalType": "bool",
              "name": "isFundable",
              "type": "bool"
            }
          ],
          "internalType": "struct Wishlist.WishModel[]",
          "name": "",
          "type": "tuple[]"
        }
      ],
      "stateMutability": "view",
      "type": "function"
    },
    {
      "inputs": [],
      "name": "owner",
      "outputs": [
        {
          "internalType": "address",
          "name": "",
          "type": "address"
        }
      ],
      "stateMutability": "view",
      "type": "function"
    },
    {
      "inputs": [
        {
          "internalType": "address",
          "name": "account",
          "type": "address"
        },
        {
          "internalType": "uint256",
          "name": "_id",
          "type": "uint256"
        }
      ],
      "name": "refundWish",
      "outputs": [],
      "stateMutability": "nonpayable",
      "type": "function"
    },
    {
      "inputs": [],
      "name": "token",
      "outputs": [
        {
          "internalType": "contract IERC20",
          "name": "",
          "type": "address"
        }
      ],
      "stateMutability": "view",
      "type": "function"
    },
    {
      "inputs": [
        {
          "internalType": "address",
          "name": "",
          "type": "address"
        }
      ],
      "name": "users",
      "outputs": [
        {
          "internalType": "string",
          "name": "",
          "type": "string"
        }
      ],
      "stateMutability": "view",
      "type": "function"
    },
    {
      "inputs": [
        {
          "internalType": "uint256",
          "name": "",
          "type": "uint256"
        }
      ],
      "name": "wishes",
      "outputs": [
        {
          "internalType": "uint256",
          "name": "id",
          "type": "uint256"
        },
        {
          "internalType": "string",
          "name": "title",
          "type": "string"
        },
        {
          "internalType": "string",
          "name": "description",
          "type": "string"
        },
        {
          "internalType": "uint256",
          "name": "goalAmount",
          "type": "uint256"
        },
        {
          "internalType": "uint256",
          "name": "currentAmount",
          "type": "uint256"
        },
        {
          "internalType": "address",
          "name": "wisher",
          "type": "address"
        },
        {
          "internalType": "bool",
          "name": "isFundable",
          "type": "bool"
        }
      ],
      "stateMutability": "view",
      "type": "function"
    },
    {
      "inputs": [
        {
          "internalType": "uint256",
          "name": "_id",
          "type": "uint256"
        }
      ],
      "name": "withdrawFunds",
      "outputs": [],
      "stateMutability": "nonpayable",
      "type": "function"
    }
  ],
  "bytecode": "0x60806040523480156200001157600080fd5b50604051620030a0380380620030a0833981810160405281019062000037919062000283565b806000806101000a81548173ffffffffffffffffffffffffffffffffffffffff021916908373ffffffffffffffffffffffffffffffffffffffff16021790555060026040518060e00160405280600081526020016040518060400160405280600d81526020017f4275792061206e6577206361720000000000000000000000000000000000000081525081526020016040518060400160405280601781526020017f492077616e7420746f206275792061206e657720636172000000000000000000815250815260200160648152602001600081526020013373ffffffffffffffffffffffffffffffffffffffff1681526020016001151581525090806001815401808255809150506001900390600052602060002090600602016000909190919091506000820151816000015560208201518160010190816200017c91906200052f565b5060408201518160020190816200019491906200052f565b50606082015181600301556080820151816004015560a08201518160050160006101000a81548173ffffffffffffffffffffffffffffffffffffffff021916908373ffffffffffffffffffffffffffffffffffffffff16021790555060c08201518160050160146101000a81548160ff02191690831515021790555050505062000616565b600080fd5b600073ffffffffffffffffffffffffffffffffffffffff82169050919050565b60006200024b826200021e565b9050919050565b6200025d816200023e565b81146200026957600080fd5b50565b6000815190506200027d8162000252565b92915050565b6000602082840312156200029c576200029b62000219565b5b6000620002ac848285016200026c565b91505092915050565b600081519050919050565b7f4e487b7100000000000000000000000000000000000000000000000000000000600052604160045260246000fd5b7f4e487b7100000000000000000000000000000000000000000000000000000000600052602260045260246000fd5b600060028204905060018216806200033757607f821691505b6020821081036200034d576200034c620002ef565b5b50919050565b60008190508160005260206000209050919050565b60006020601f8301049050919050565b600082821b905092915050565b600060088302620003b77fffffffffffffffffffffffffffffffffffffffffffffffffffffffffffffffff8262000378565b620003c3868362000378565b95508019841693508086168417925050509392505050565b6000819050919050565b6000819050919050565b6000620004106200040a6200040484620003db565b620003e5565b620003db565b9050919050565b6000819050919050565b6200042c83620003ef565b620004446200043b8262000417565b84845462000385565b825550505050565b600090565b6200045b6200044c565b6200046881848462000421565b505050565b5b8181101562000490576200048460008262000451565b6001810190506200046e565b5050565b601f821115620004df57620004a98162000353565b620004b48462000368565b81016020851015620004c4578190505b620004dc620004d38562000368565b8301826200046d565b50505b505050565b600082821c905092915050565b60006200050460001984600802620004e4565b1980831691505092915050565b60006200051f8383620004f1565b9150826002028217905092915050565b6200053a82620002b5565b67ffffffffffffffff811115620005565762000555620002c0565b5b6200056282546200031e565b6200056f82828562000494565b600060209050601f831160018114620005a7576000841562000592578287015190505b6200059e858262000511565b8655506200060e565b601f198416620005b78662000353565b60005b82811015620005e157848901518255600182019150602085019450602081019050620005ba565b86831015620006015784890151620005fd601f891682620004f1565b8355505b6001600288020188555050505b505050505050565b612a7a80620006266000396000f3fe608060405234801561001057600080fd5b50600436106100cf5760003560e01c80638820e4661161008c578063b97718ae11610066578063b97718ae1461021e578063c2182dde1461023a578063ce43c03214610256578063fc0c546a14610286576100cf565b80638820e4661461019a5780638da5cb5b146101d0578063a87430ba146101ee576100cf565b80630153b82b146100d457806304ffb539146100f2578063155dd5ee146101105780631953f2221461012c578063202cbac2146101485780634702aab31461017e575b600080fd5b6100dc6102a4565b6040516100e99190611b65565b60405180910390f35b6100fa6104b6565b6040516101079190611b96565b60405180910390f35b61012a60048036038101906101259190611bf1565b6104c3565b005b61014660048036038101906101419190611d53565b6108b9565b005b610162600480360381019061015d9190611bf1565b610a81565b6040516101759796959493929190611e46565b60405180910390f35b61019860048036038101906101939190611eef565b610d00565b005b6101b460048036038101906101af9190611bf1565b6110d8565b6040516101c79796959493929190611e46565b60405180910390f35b6101d8611267565b6040516101e59190611f2f565b60405180910390f35b61020860048036038101906102039190611f4a565b61128d565b6040516102159190611f77565b60405180910390f35b61023860048036038101906102339190611bf1565b61132d565b005b610254600480360381019061024f9190611f99565b6114bf565b005b610270600480360381019061026b9190611f4a565b611806565b60405161027d9190611f77565b60405180910390f35b61028e6118d7565b60405161029b9190612038565b60405180910390f35b60606002805480602002602001604051908101604052809291908181526020016000905b828210156104ad57838290600052602060002090600602016040518060e00160405290816000820154815260200160018201805461030590612082565b80601f016020809104026020016040519081016040528092919081815260200182805461033190612082565b801561037e5780601f106103535761010080835404028352916020019161037e565b820191906000526020600020905b81548152906001019060200180831161036157829003601f168201915b5050505050815260200160028201805461039790612082565b80601f01602080910402602001604051908101604052809291908181526020018280546103c390612082565b80156104105780601f106103e557610100808354040283529160200191610410565b820191906000526020600020905b8154815290600101906020018083116103f357829003601f168201915b5050505050815260200160038201548152602001600482015481526020016005820160009054906101000a900473ffffffffffffffffffffffffffffffffffffffff1673ffffffffffffffffffffffffffffffffffffffff1673ffffffffffffffffffffffffffffffffffffffff1681526020016005820160149054906101000a900460ff161515151581525050815260200190600101906102c8565b50505050905090565b6000600280549050905090565b6000811180156104d7575060028054905081105b610516576040517f08c379a000000000000000000000000000000000000000000000000000000000815260040161050d906120ff565b60405180910390fd5b60006002828154811061052c5761052b61211f565b5b90600052602060002090600602016040518060e00160405290816000820154815260200160018201805461055f90612082565b80601f016020809104026020016040519081016040528092919081815260200182805461058b90612082565b80156105d85780601f106105ad576101008083540402835291602001916105d8565b820191906000526020600020905b8154815290600101906020018083116105bb57829003601f168201915b505050505081526020016002820180546105f190612082565b80601f016020809104026020016040519081016040528092919081815260200182805461061d90612082565b801561066a5780601f1061063f5761010080835404028352916020019161066a565b820191906000526020600020905b81548152906001019060200180831161064d57829003601f168201915b5050505050815260200160038201548152602001600482015481526020016005820160009054906101000a900473ffffffffffffffffffffffffffffffffffffffff1673ffffffffffffffffffffffffffffffffffffffff1673ffffffffffffffffffffffffffffffffffffffff1681526020016005820160149054906101000a900460ff16151515158152505090508060a0015173ffffffffffffffffffffffffffffffffffffffff163373ffffffffffffffffffffffffffffffffffffffff161461076c576040517f08c379a0000000000000000000000000000000000000000000000000000000008152600401610763906121c0565b60405180910390fd5b60008054906101000a900473ffffffffffffffffffffffffffffffffffffffff1673ffffffffffffffffffffffffffffffffffffffff166323b872dd600160009054906101000a900473ffffffffffffffffffffffffffffffffffffffff163384608001516040518463ffffffff1660e01b81526004016107ef939291906121e0565b6020604051808303816000875af115801561080e573d6000803e3d6000fd5b505050506040513d601f19601f820116820180604052508101906108329190612243565b50600081608001818152505060008160c00190151590811515815250507f8aedd9e32d952f4dcfb8653767759e20c7a0ae32d3204478d0ceae10fe71fc84828260200151336002868154811061088b5761088a61211f565b5b9060005260206000209060060201600401546040516108ad9493929190612270565b60405180910390a15050565b600081116108fc576040517f08c379a00000000000000000000000000000000000000000000000000000000081526004016108f39061232e565b60405180910390fd5b60026040518060e001604052806002805490508152602001858152602001848152602001838152602001600081526020013373ffffffffffffffffffffffffffffffffffffffff16815260200160011515815250908060018154018082558091505060019003906000526020600020906006020160009091909190915060008201518160000155602082015181600101908161099891906124f0565b5060408201518160020190816109ae91906124f0565b50606082015181600301556080820151816004015560a08201518160050160006101000a81548173ffffffffffffffffffffffffffffffffffffffff021916908373ffffffffffffffffffffffffffffffffffffffff16021790555060c08201518160050160146101000a81548160ff02191690831515021790555050507f229b523dc237749feb370617372f075a89a237e7b3badee63a20a1f393a01e436001600280549050610a5f91906125f1565b84848433604051610a74959493929190612625565b60405180910390a1505050565b6000606080600080600080600088118015610aa0575060028054905088105b610adf576040517f08c379a0000000000000000000000000000000000000000000000000000000008152600401610ad6906120ff565b60405180910390fd5b600060028981548110610af557610af461211f565b5b90600052602060002090600602016040518060e001604052908160008201548152602001600182018054610b2890612082565b80601f0160208091040260200160405190810160405280929190818152602001828054610b5490612082565b8015610ba15780601f10610b7657610100808354040283529160200191610ba1565b820191906000526020600020905b815481529060010190602001808311610b8457829003601f168201915b50505050508152602001600282018054610bba90612082565b80601f0160208091040260200160405190810160405280929190818152602001828054610be690612082565b8015610c335780601f10610c0857610100808354040283529160200191610c33565b820191906000526020600020905b815481529060010190602001808311610c1657829003601f168201915b5050505050815260200160038201548152602001600482015481526020016005820160009054906101000a900473ffffffffffffffffffffffffffffffffffffffff1673ffffffffffffffffffffffffffffffffffffffff1673ffffffffffffffffffffffffffffffffffffffff1681526020016005820160149054906101000a900460ff1615151515815250509050806000015181602001518260400151836060015184608001518560a001518660c00151975097509750975097509750975050919395979092949650565b600081118015610d14575060028054905081105b610d53576040517f08c379a0000000000000000000000000000000000000000000000000000000008152600401610d4a906120ff565b60405180910390fd5b60028181548110610d6757610d6661211f565b5b906000526020600020906006020160050160149054906101000a900460ff16610dc5576040517f08c379a0000000000000000000000000000000000000000000000000000000008152600401610dbc906126d2565b60405180910390fd5b600060028281548110610ddb57610dda61211f565b5b90600052602060002090600602019050600060046000848152602001908152602001600020805480602002602001604051908101604052809291908181526020016000905b82821015610ebc5783829060005260206000209060030201604051806060016040529081600082015481526020016001820160009054906101000a900473ffffffffffffffffffffffffffffffffffffffff1673ffffffffffffffffffffffffffffffffffffffff1673ffffffffffffffffffffffffffffffffffffffff16815260200160028201548152505081526020019060010190610e20565b50505050905060005b81518110156110d1578473ffffffffffffffffffffffffffffffffffffffff16828281518110610ef857610ef761211f565b5b60200260200101516020015173ffffffffffffffffffffffffffffffffffffffff16036110be5760008054906101000a900473ffffffffffffffffffffffffffffffffffffffff1673ffffffffffffffffffffffffffffffffffffffff166323b872dd600160009054906101000a900473ffffffffffffffffffffffffffffffffffffffff1633858581518110610f9257610f9161211f565b5b6020026020010151604001516040518463ffffffff1660e01b8152600401610fbc939291906121e0565b6020604051808303816000875af1158015610fdb573d6000803e3d6000fd5b505050506040513d601f19601f82011682018060405250810190610fff9190612243565b508181815181106110135761101261211f565b5b60200260200101516040015183600401600082825461103291906125f1565b925050819055507fe9edfd6fd44e2d2d5924e3dd8cb1c982d7bc67ec27c0920caf2b4f34459e009184846001018560050160009054906101000a900473ffffffffffffffffffffffffffffffffffffffff16338686815181106110985761109761211f565b5b6020026020010151604001516040516110b5959493929190612776565b60405180910390a15b80806110c9906127d0565b915050610ec5565b5050505050565b600281815481106110e857600080fd5b906000526020600020906006020160009150905080600001549080600101805461111190612082565b80601f016020809104026020016040519081016040528092919081815260200182805461113d90612082565b801561118a5780601f1061115f5761010080835404028352916020019161118a565b820191906000526020600020905b81548152906001019060200180831161116d57829003601f168201915b50505050509080600201805461119f90612082565b80601f01602080910402602001604051908101604052809291908181526020018280546111cb90612082565b80156112185780601f106111ed57610100808354040283529160200191611218565b820191906000526020600020905b8154815290600101906020018083116111fb57829003601f168201915b5050505050908060030154908060040154908060050160009054906101000a900473ffffffffffffffffffffffffffffffffffffffff16908060050160149054906101000a900460ff16905087565b600160009054906101000a900473ffffffffffffffffffffffffffffffffffffffff1681565b600360205280600052604060002060009150905080546112ac90612082565b80601f01602080910402602001604051908101604052809291908181526020018280546112d890612082565b80156113255780601f106112fa57610100808354040283529160200191611325565b820191906000526020600020905b81548152906001019060200180831161130857829003601f168201915b505050505081565b6000600282815481106113435761134261211f565b5b906000526020600020906006020190508060050160149054906101000a900460ff166113a4576040517f08c379a000000000000000000000000000000000000000000000000000000000815260040161139b90612864565b60405180910390fd5b8060050160009054906101000a900473ffffffffffffffffffffffffffffffffffffffff1673ffffffffffffffffffffffffffffffffffffffff163373ffffffffffffffffffffffffffffffffffffffff1614611436576040517f08c379a000000000000000000000000000000000000000000000000000000000815260040161142d906121c0565b60405180910390fd5b60008160050160146101000a81548160ff0219169083151502179055507f3be3a5772abcfbfa3570887580227ad1ab78a1720f5b9f7931a477d60a0a383182826001018360050160009054906101000a900473ffffffffffffffffffffffffffffffffffffffff1684600401546040516114b39493929190612884565b60405180910390a15050565b60008111611502576040517f08c379a00000000000000000000000000000000000000000000000000000000081526004016114f99061291c565b60405180910390fd5b600082118015611516575060028054905082105b611555576040517f08c379a000000000000000000000000000000000000000000000000000000000815260040161154c906120ff565b60405180910390fd5b600282815481106115695761156861211f565b5b906000526020600020906006020160050160149054906101000a900460ff166115c7576040517f08c379a00000000000000000000000000000000000000000000000000000000081526004016115be90612988565b60405180910390fd5b6000600283815481106115dd576115dc61211f565b5b9060005260206000209060060201905060008054906101000a900473ffffffffffffffffffffffffffffffffffffffff1673ffffffffffffffffffffffffffffffffffffffff166323b872dd33600160009054906101000a900473ffffffffffffffffffffffffffffffffffffffff16856040518463ffffffff1660e01b815260040161166c939291906121e0565b6020604051808303816000875af115801561168b573d6000803e3d6000fd5b505050506040513d601f19601f820116820180604052508101906116af9190612243565b50818160040160008282546116c491906129a8565b925050819055506004600084815260200190815260200160002060405180606001604052808581526020013373ffffffffffffffffffffffffffffffffffffffff1681526020018481525090806001815401808255809150506001900390600052602060002090600302016000909190919091506000820151816000015560208201518160010160006101000a81548173ffffffffffffffffffffffffffffffffffffffff021916908373ffffffffffffffffffffffffffffffffffffffff1602179055506040820151816002015550507fc37b50c58e9d90c4d505f2ed87c4ebea13318438097ac7a57260c37e72703bcf838260010183600401548460050160009054906101000a900473ffffffffffffffffffffffffffffffffffffffff1633876040516117f9969594939291906129dc565b60405180910390a1505050565b6060600360008373ffffffffffffffffffffffffffffffffffffffff1673ffffffffffffffffffffffffffffffffffffffff168152602001908152602001600020805461185290612082565b80601f016020809104026020016040519081016040528092919081815260200182805461187e90612082565b80156118cb5780601f106118a0576101008083540402835291602001916118cb565b820191906000526020600020905b8154815290600101906020018083116118ae57829003601f168201915b50505050509050919050565b60008054906101000a900473ffffffffffffffffffffffffffffffffffffffff1681565b600081519050919050565b600082825260208201905092915050565b6000819050602082019050919050565b6000819050919050565b61193a81611927565b82525050565b600081519050919050565b600082825260208201905092915050565b60005b8381101561197a57808201518184015260208101905061195f565b60008484015250505050565b6000601f19601f8301169050919050565b60006119a282611940565b6119ac818561194b565b93506119bc81856020860161195c565b6119c581611986565b840191505092915050565b600073ffffffffffffffffffffffffffffffffffffffff82169050919050565b60006119fb826119d0565b9050919050565b611a0b816119f0565b82525050565b60008115159050919050565b611a2681611a11565b82525050565b600060e083016000830151611a446000860182611931565b5060208301518482036020860152611a5c8282611997565b91505060408301518482036040860152611a768282611997565b9150506060830151611a8b6060860182611931565b506080830151611a9e6080860182611931565b5060a0830151611ab160a0860182611a02565b5060c0830151611ac460c0860182611a1d565b508091505092915050565b6000611adb8383611a2c565b905092915050565b6000602082019050919050565b6000611afb826118fb565b611b058185611906565b935083602082028501611b1785611917565b8060005b85811015611b535784840389528151611b348582611acf565b9450611b3f83611ae3565b925060208a01995050600181019050611b1b565b50829750879550505050505092915050565b60006020820190508181036000830152611b7f8184611af0565b905092915050565b611b9081611927565b82525050565b6000602082019050611bab6000830184611b87565b92915050565b6000604051905090565b600080fd5b600080fd5b611bce81611927565b8114611bd957600080fd5b50565b600081359050611beb81611bc5565b92915050565b600060208284031215611c0757611c06611bbb565b5b6000611c1584828501611bdc565b91505092915050565b600080fd5b600080fd5b7f4e487b7100000000000000000000000000000000000000000000000000000000600052604160045260246000fd5b611c6082611986565b810181811067ffffffffffffffff82111715611c7f57611c7e611c28565b5b80604052505050565b6000611c92611bb1565b9050611c9e8282611c57565b919050565b600067ffffffffffffffff821115611cbe57611cbd611c28565b5b611cc782611986565b9050602081019050919050565b82818337600083830152505050565b6000611cf6611cf184611ca3565b611c88565b905082815260208101848484011115611d1257611d11611c23565b5b611d1d848285611cd4565b509392505050565b600082601f830112611d3a57611d39611c1e565b5b8135611d4a848260208601611ce3565b91505092915050565b600080600060608486031215611d6c57611d6b611bbb565b5b600084013567ffffffffffffffff811115611d8a57611d89611bc0565b5b611d9686828701611d25565b935050602084013567ffffffffffffffff811115611db757611db6611bc0565b5b611dc386828701611d25565b9250506040611dd486828701611bdc565b9150509250925092565b600082825260208201905092915050565b6000611dfa82611940565b611e048185611dde565b9350611e1481856020860161195c565b611e1d81611986565b840191505092915050565b611e31816119f0565b82525050565b611e4081611a11565b82525050565b600060e082019050611e5b600083018a611b87565b8181036020830152611e6d8189611def565b90508181036040830152611e818188611def565b9050611e906060830187611b87565b611e9d6080830186611b87565b611eaa60a0830185611e28565b611eb760c0830184611e37565b98975050505050505050565b611ecc816119f0565b8114611ed757600080fd5b50565b600081359050611ee981611ec3565b92915050565b60008060408385031215611f0657611f05611bbb565b5b6000611f1485828601611eda565b9250506020611f2585828601611bdc565b9150509250929050565b6000602082019050611f446000830184611e28565b92915050565b600060208284031215611f6057611f5f611bbb565b5b6000611f6e84828501611eda565b91505092915050565b60006020820190508181036000830152611f918184611def565b905092915050565b60008060408385031215611fb057611faf611bbb565b5b6000611fbe85828601611bdc565b9250506020611fcf85828601611bdc565b9150509250929050565b6000819050919050565b6000611ffe611ff9611ff4846119d0565b611fd9565b6119d0565b9050919050565b600061201082611fe3565b9050919050565b600061202282612005565b9050919050565b61203281612017565b82525050565b600060208201905061204d6000830184612029565b92915050565b7f4e487b7100000000000000000000000000000000000000000000000000000000600052602260045260246000fd5b6000600282049050600182168061209a57607f821691505b6020821081036120ad576120ac612053565b5b50919050565b7f496e76616c696420776973682069640000000000000000000000000000000000600082015250565b60006120e9600f83611dde565b91506120f4826120b3565b602082019050919050565b60006020820190508181036000830152612118816120dc565b9050919050565b7f4e487b7100000000000000000000000000000000000000000000000000000000600052603260045260246000fd5b7f596f7520617265206e6f7420746865206f776e6572206f66207468652077697360008201527f6800000000000000000000000000000000000000000000000000000000000000602082015250565b60006121aa602183611dde565b91506121b58261214e565b604082019050919050565b600060208201905081810360008301526121d98161219d565b9050919050565b60006060820190506121f56000830186611e28565b6122026020830185611e28565b61220f6040830184611b87565b949350505050565b61222081611a11565b811461222b57600080fd5b50565b60008151905061223d81612217565b92915050565b60006020828403121561225957612258611bbb565b5b60006122678482850161222e565b91505092915050565b60006080820190506122856000830187611b87565b81810360208301526122978186611def565b90506122a66040830185611e28565b6122b36060830184611b87565b95945050505050565b7f476f616c20616d6f756e742073686f756c64206265206772656174657220746860008201527f616e203000000000000000000000000000000000000000000000000000000000602082015250565b6000612318602483611dde565b9150612323826122bc565b604082019050919050565b600060208201905081810360008301526123478161230b565b9050919050565b60008190508160005260206000209050919050565b60006020601f8301049050919050565b600082821b905092915050565b6000600883026123b07fffffffffffffffffffffffffffffffffffffffffffffffffffffffffffffffff82612373565b6123ba8683612373565b95508019841693508086168417925050509392505050565b60006123ed6123e86123e384611927565b611fd9565b611927565b9050919050565b6000819050919050565b612407836123d2565b61241b612413826123f4565b848454612380565b825550505050565b600090565b612430612423565b61243b8184846123fe565b505050565b5b8181101561245f57612454600082612428565b600181019050612441565b5050565b601f8211156124a4576124758161234e565b61247e84612363565b8101602085101561248d578190505b6124a161249985612363565b830182612440565b50505b505050565b600082821c905092915050565b60006124c7600019846008026124a9565b1980831691505092915050565b60006124e083836124b6565b9150826002028217905092915050565b6124f982611940565b67ffffffffffffffff81111561251257612511611c28565b5b61251c8254612082565b612527828285612463565b600060209050601f83116001811461255a5760008415612548578287015190505b61255285826124d4565b8655506125ba565b601f1984166125688661234e565b60005b828110156125905784890151825560018201915060208501945060208101905061256b565b868310156125ad57848901516125a9601f8916826124b6565b8355505b6001600288020188555050505b505050505050565b7f4e487b7100000000000000000000000000000000000000000000000000000000600052601160045260246000fd5b60006125fc82611927565b915061260783611927565b925082820390508181111561261f5761261e6125c2565b5b92915050565b600060a08201905061263a6000830188611b87565b818103602083015261264c8187611def565b905081810360408301526126608186611def565b905061266f6060830185611b87565b61267c6080830184611e28565b9695505050505050565b7f57697368206973206e6f742066756e6461626c6520746f20726566756e640000600082015250565b60006126bc601e83611dde565b91506126c782612686565b602082019050919050565b600060208201905081810360008301526126eb816126af565b9050919050565b600081546126ff81612082565b6127098186611dde565b94506001821660008114612724576001811461273a5761276d565b60ff19831686528115156020028601935061276d565b6127438561234e565b60005b8381101561276557815481890152600182019150602081019050612746565b808801955050505b50505092915050565b600060a08201905061278b6000830188611b87565b818103602083015261279d81876126f2565b90506127ac6040830186611e28565b6127b96060830185611e28565b6127c66080830184611b87565b9695505050505050565b60006127db82611927565b91507fffffffffffffffffffffffffffffffffffffffffffffffffffffffffffffffff820361280d5761280c6125c2565b5b600182019050919050565b7f57697368206973206e6f742066756e6461626c6520746f20636c6f7365000000600082015250565b600061284e601d83611dde565b915061285982612818565b602082019050919050565b6000602082019050818103600083015261287d81612841565b9050919050565b60006080820190506128996000830187611b87565b81810360208301526128ab81866126f2565b90506128ba6040830185611e28565b6128c76060830184611b87565b95945050505050565b7f416d6f756e742073686f756c642062652067726561746572207468616e203000600082015250565b6000612906601f83611dde565b9150612911826128d0565b602082019050919050565b60006020820190508181036000830152612935816128f9565b9050919050565b7f57697368206973206e6f742066756e6461626c65000000000000000000000000600082015250565b6000612972601483611dde565b915061297d8261293c565b602082019050919050565b600060208201905081810360008301526129a181612965565b9050919050565b60006129b382611927565b91506129be83611927565b92508282019050808211156129d6576129d56125c2565b5b92915050565b600060c0820190506129f16000830189611b87565b8181036020830152612a0381886126f2565b9050612a126040830187611b87565b612a1f6060830186611e28565b612a2c6080830185611e28565b612a3960a0830184611b87565b97965050505050505056fea2646970667358221220ede6abb2a95aa3341993bc23c4d0e981a82c3aea3aeeb4fad6134ea504c969cf64736f6c63430008140033",
  "linkReferences": {},
  "deployedLinkReferences": {}
}